:10000000C0210020ED1C000051700000D91C000030
:10001000D91C0000D91C0000D91C00000000000001
:10002000000000000000000000000000F51A0000C1
:10003000D91C000000000000A11A0000E5350000F6
:10004000591A0000591A0000591A0000591A0000E4
:10005000591A0000591A0000591A0000591A0000D4
:10006000591A0000591A0000591A0000591A0000C4
:10007000591A0000591A0000591A0000591A0000B4
:10008000591A0000591A0000591A0000591A0000A4
:10009000591A0000591A0000591A0000591A000094
:1000A000591A0000591A0000591A0000591A000084
:1000B000591A0000591A0000591A0000591A000074
:1000C000591A0000591A0000591A0000591A000064
:1000D000591A0000591A0000591A0000591A000054
:1000E000591A0000591A0000591A0000591A000044
:1000F000591A0000591A0000591A0000591A000034
:1001000053B94AB9002908BF00281CBF4FF0FF317E
:100110004FF0FF3000F06CB9ADF1080C6DE904CE82
:1001200000F006F8DDF804E0DDE9022304B07047D2
:100130002DE9F047089E0D4604468E46002B40F000
:1001400082808A42174646D9B2FA82F24AB1C2F197
:10015000200105FA02F320FA01F1974041EA030E6B
:1001600094404FEA1748230CBEFBF8FCB9B208FBD9
:100170001CEE43EA0E430CFB01F098420AD9FB182F
:100180000CF1FF3580F01681984240F21381ACF1FA
:10019000020C3B441B1AA4B2B3FBF8F008FB10336B
:1001A00044EA034400FB01F1A14209D93C1900F1E2
:1001B000FF3380F00181A14240F2FE8002383C44CE
:1001C000641A40EA0C4000211EB1D4400023C6E965
:1001D0000043BDE8F08702B9FFDEB2FA82F2002ADE
:1001E0004FD1CB1B4FEA174E1FFA87F80121B3FB03
:1001F000FEFC250C0EFB1C3345EA034508FB0CF303
:10020000AB4207D97D190CF1FF3002D2AB4200F2AC
:10021000E7808446ED1AA3B2B5FBFEF00EFB105545
:1002200043EA054408FB00F8A04507D93C1900F152
:10023000FF3302D2A04500F2D7801846A4EB080491
:1002400040EA0C40C0E78B4208D9002E00F0AF8096
:100250000021C6E900050846BDE8F087B3FA83F13E
:1002600000294BD1AB4202D3824200F2B780841AFC
:1002700065EB030301209E46002EAAD0C6E9004E7E
:10028000A7E7C2F1200C01FA02F3974020FA0CF024
:100290004FEA174E21FA0CFC1843BCFBFEF1050C8B
:1002A0000EFB11CC1FFA87F845EA0C4501FB08F359
:1002B000AB4204FA02F409D97D1901F1FF3C80F048
:1002C0008B80AB4240F2888002393D44EB1A85B204
:1002D000B3FBFEF00EFB103345EA034500FB08F3C9
:1002E000AB4207D97D1900F1FF3C71D2AB426FD907
:1002F00002383D44EB1A40EA014178E7C1F1200C95
:100300008B4022FA0CF71F4320FA0CF405FA01F394
:100310004FEA174E25FA0CF51C43230CB5FBFEF9EA
:100320001FFA87F80EFB195543EA054509FB08FA41
:10033000AA4502FA01F200FA01F308D97D1909F180
:10034000FF3047D2AA4545D9A9F102093D44A5EBA2
:100350000A05A4B2B5FBFEF00EFB105544EA0544B5
:1003600000FB08F8A04507D93C1900F1FF352DD254
:10037000A0452BD902383C4440EA0940A4EB0804CC
:10038000A0FB02894C45C6464D4619D316D05EB136
:10039000B3EB0E0264EB050404FA0CFCCA404CEA11
:1003A0000202CC40C6E900240021BDE8F0873146B6
:1003B00030460EE7AC46EDE6184601E74345E6D287
:1003C000B8EB020E69EB07050138E0E72846D3E7F2
:1003D00060468FE78146BAE7614677E708464BE714
:1003E000ACF1020C3D4415E702383C4426E700BF5F
:1003F000704700BF2DE9F7432148224FDFF888807E
:10040000DFF8889006F003FE06F04EFB10F57A74D4
:1004100041F10005002606F047FB013602460B4677
:100420003846314606F0F3FD06F16403694640465E
:10043000ADF8043007F053F8BDF80410484606F054
:10044000E6FD06F031FB0B46A04273EB05010246C8
:10045000E1DAA4EB020C2CEAEC7C4FF4004E40F203
:10046000E73000214FF47A720023CEFB0C01FFF736
:1004700047FE05F04FF914F57A7445F10005CAE717
:10048000587A0000727A0000E8030020A97A000080
:100490002DE9F3411548DFF86880154F154E06F039
:1004A000B6FD00244FF0FF324FF0FF33404604F01A
:1004B00097F8054606F0F8FA013402460B4638462E
:1004C000214606F0A4FDA988304606F0A0FD04F1FF
:1004D000C80369460848ADF8043007F000F8BDF8D5
:1004E0000410064806F093FDDCE700BFC77A000061
:1004F000017B0000367B0000FC030020557B0000E0
:10050000E80300202DE9F0410E48DFF844800E4F4B
:100510000E4E06F07CFD00254FF0FF324FF0FF330A
:10052000404604F05DF8044606F0BEFA0135024686
:100530000B463846294606F06AFDA188304606F08B
:1005400066FDE9E7797B0000B37B0000E97B0000F2
:10055000FC0300202DE9F041214888B006F057FD4A
:10056000204806F0B3FF204806F0B0FF0026002721
:1005700000240125CDE90667CDE90354CDE9014406
:100580001A4B1B4900944FF480621A4805F0E0FAB8
:10059000194B1860194B1A490094CDE90667CDE94B
:1005A0000354CDE901444FF480621648DFF86480BB
:1005B00005F0CEFAC8F80000134B14490094CDE9B9
:1005C0000667CDE90354CDE901444FF48062104839
:1005D00005F0BEFAC8F8000008B0BDE8F08100BF21
:1005E000037C0000E8030020FC030020F50300006A
:1005F0006011002040010020100400209104000040
:1006000080150020C001002005050000A019002071
:1006100040020020140400202DE9F04F91B08B46D9
:10062000029092461C4600259AF8000008B9284618
:100630005EE325280AF1010707D0029B5946984737
:100640000028C0F25583013510E2182200210AA8C3
:1006500006F02DFD9AF80130252B78D00022944623
:10066000164696461046394617F8013B2B2B00F0EC
:100670009D8000F29480202B00F09B80232B00F0C3
:100680009A8028B19DF8300040F004008DF83000C9
:10069000BEF1000F05D09DF8300040F008008DF845
:1006A00030002EB19DF8300040F010008DF8300081
:1006B000BCF1000F05D09DF8300040F020008DF80F
:1006C00030002AB19DF8302042F040028DF83020F1
:1006D0009DF8302002F04400442803D16FF38612C5
:1006E0008DF830209DF830202A2B42F080028DF8C2
:1006F00030207BD19DF8312042F001024B1C8DF857
:1007000031201A782E2A9DF831200CBF01210021BA
:1007100061F341028DF8312074D15A782A2A6AD0C7
:10072000013300210A26184610F8012BA2F13007E8
:10073000092F40F28E809DF830200E91C2F34000C8
:1007400040EAD17161F341028DF830205AE00AF19C
:1007500002078DF833309DF83130D90740F14981D7
:1007600054F8049BB9F1000F07DA9DF8302042F0ED
:1007700004028DF83020C9F100095A0740F1428186
:1007800054F8048BB8F1000F80F241819DF83130AC
:100790006FF341038DF831304FF0FF3837E12D2BE7
:1007A0000CD0302B7FF46DAF01225CE74FF0010ECF
:1007B00059E7012657E74FF0010C54E7012052E7B3
:1007C0000CFB0202303A33461E4616F8010BA0F12C
:1007D0003007092FF4D9994293D09DF830100D922B
:1007E000D20F62F341018DF830108AE70B460022E8
:1007F0004FF00A0CE8E79DF8312042F004028DF832
:10080000312002331F4617F8012B6C2A41D025D81E
:10081000682A2BD06A2A46D04C2A4CD01F4617F89B
:10082000012B9DF831308DF83320782A00F2D980E1
:10083000572A4DD8412A03D0453A022A00F2D180E6
:100840009DF83230042262F302038DF83230012326
:100850009EE006FB01213039034664E7742A26D066
:100860007A2ADBD19DF8313006220DE05A78682AC9
:100870009DF8312006D1012161F3C6028DF83120A7
:100880009F1CCCE71346022262F3C6038DF8313079
:10089000C5E75A786C2A9DF8312001D10421EBE795
:1008A00013460322F0E79DF831300522ECE79DF86E
:1008B00031300722E8E7BDF8303023F4F04323F06D
:1008C000020343F4804343F00203ADF83030A6E75F
:1008D000A2F15801202900F2848001A050F821F0F3
:1008E000A5090000E3090000E3090000E309000096
:1008F000E3090000E3090000E3090000E309000048
:10090000E309000041080000E3090000A509000018
:10091000650900004108000041080000410800008E
:10092000E309000065090000E3090000E309000095
:10093000E3090000E3090000AD090000A50900007B
:10094000C9090000E3090000E3090000C90900002B
:10095000E3090000A5090000E3090000E309000025
:10096000A50900009DF83210012003F0780360F320
:100970000201402B8DF8321002BF9DF8301041F07B
:1009800001018DF83010632A31D1003B18BF0123DB
:100990009DF83020C2F340010B4363F341028DF810
:1009A0003020D8E69DF832100220DEE79DF8322094
:1009B00003F07803A3F14000032161F302024342F4
:1009C0008DF832204341E3E79DF83220032113F0F4
:1009D000780F61F302028DF8322014BF0123002347
:1009E000D6E79DF8303043F001038DF83030002316
:1009F000CEE79DF93020002AB4BFDDF834904FF0E7
:100A0000FF39BAE69B077FF5C7AEDDF838809DF861
:100A100031200023CDE90D339DF8323003F0070378
:100A2000012BC2F3C30236D1D31E042B20D8DFE83A
:100A300003F00307071F1F0054F8040BC11704E05D
:100A4000073424F00704F4E80201CDE90A019DF817
:100A5000303013F0030654D002983B4652465946B4
:100A600006F082F80028C0F243810544BA46DBE56F
:100A700054F8040B012A4FEAE071CDE90A0105D1CF
:100A80009DF828300A9300230B93E0E7022ADED179
:100A9000BDF92800D2E7022B23D1D31E042B13D893
:100AA000DFE803F0030A0A12120020680A9000210E
:100AB000231D0B911C46CAE7073424F00703F3E813
:100AC0000201CDE90A01F5E754F8043B0A93012A33
:100AD0004FF000030B93D3D0022AB8D1BDF82830D1
:100AE000D0E7042B07D1073424F00704F4E802010F
:100AF000CDE90A01ABE7032B04BF54F8043B0A938A
:100B0000A5E79DF833007828B0D8622822D8252898
:100B10003FF493AD5828A9D10DF126030093DDE9E8
:100B20000A0104AB0CAA05F0D4FF8246B8F1000F0D
:100B30000DF126000CDB9DF83020A0EB0A036FF3CB
:100B4000861298458DF8302002D9A8EB03030D9347
:100B500080463DE06338152888D801A151F820F07F
:100B6000E10B0000450C00006D0A00006D0A00005A
:100B70006D0A00006D0A0000450C00006D0A0000BF
:100B80006D0A00006D0A00006D0A0000A30C000051
:100B9000710C0000750C00006D0A00006D0A000069
:100BA000B90B00006D0A0000710C00006D0A000016
:100BB0006D0A0000710C0000B8F1000FDDF828A0EC
:100BC0000ADB4146504606F05EFA0AEB00080026B2
:100BD000BAF1000F0CD149E7504606F04DFAF4E7A0
:100BE0000A9B8DF8103000260DF111080DF1100A46
:100BF000A8EB0A0306B101339DF83220D0066BD56D
:100C0000023352060D9948BF0E9A0B4448BF9B18F9
:100C1000B9F1000F79DD9DF83020A9EB0309C2F38B
:100C200080030393530770D4500664D546B1029BEA
:100C300059463046984700285ADB039B01351E462B
:100C4000302359E01E0711D413F0100618BF2026D8
:100C5000DDE90A23002A73F10001BFF65DAF5242BD
:100C600063EB4303CDE90A232D2655E72B26EFE757
:100C7000002651E70A9848B30DF1260300930CAA09
:100C800004AB002105F025FFBDF8323003F0EF037F
:100C900043F4F04343F010038246ADF832300026AF
:100CA00044E70A9B072A3FF6E1AEDFE802F00D04B5
:100CB000060D08080D0D1D70D8E61D80D6E62846E5
:100CC000E917C3E90001D1E61D60CFE6DFF8C48073
:100CD0000646A8F1050A8BE7110748BF013390E7E4
:100CE000184603935946029B98470028039B04DA51
:100CF00011B0BDE8F08F20234D444A46002AA5EBF1
:100D0000090109F1FF39EBDC0D4636B1029B59466A
:100D1000304698470028EBDB01359DF83230D90684
:100D200001D41A0706D5029B59463020984700285F
:100D3000DEDB01359DF83230DB0607D59DF8330048
:100D4000029B594698470028D2DB01350D9E2E4460
:100D5000731B002B16DC029843465246594605F099
:100D600003FF0028C4DB0544A944A9EB0503002BBD
:100D70007FF77CAE029B5946202098470028B7DBBE
:100D80000135F2E7029B5946302098470028AFDB37
:100D90000135DDE7237C0000F8B50E46002943D07D
:100DA0000568AB68B3F5004F2CBF082404240C1B66
:100DB000641BE40801222146284605F0ECFEC30727
:100DC0000DD41A4A1A491B489A2306F020F91A48EA
:100DD000314606F01CF915489A2105F073FE2146AC
:100DE000284605F0EEFE271839460022284605F071
:100DF000D2FE3F1ABC420DD00C4A10490D48A22326
:100E000006F005F90E48314606F001F90748A2211F
:100E100005F058FE21462846002205F0D8FE21465E
:100E2000BDE8F84006F00EB8F8BD00BF247C000015
:100E3000457C0000567C0000737C0000AB7C000009
:100E4000D17C00002DE9F0470668B3681446B3F57D
:100E5000004FC1F1000202EA01072CBF082504255A
:100E600031EA02021ED0BD4228BF3D46B946CF1B23
:100E700007F1FF3A1AEA070F0ED03649364A3748CB
:100E800040F20D1306F0C3F8354806F0C0F83248BA
:100E900040F20D1105F016FE74B94FF000094846F6
:100EA000BDE8F087A94204D82146BDE8F04706F026
:100EB0000BB84FF00009DBE7B368B3EBD40FECD904
:100EC0003919491B304605F09EFE0146304605F0B3
:100ED00024FF80460028E0D0B368B3F5004F2CBF54
:100EE0000823042309EBC0051D44354455447F42C3
:100EF0002F40A7EB09094C44A9EB030307349B1BC4
:100F000024F00704A41BB0EBD30F4FEAD3074FEA3A
:100F1000E40408D201463A46304605F0A8FE4146B0
:100F2000304605F033FF3946304605F04AFE384476
:100F3000844208D239463046224605F098FE2146C2
:100F4000304605F023FF01223946304605F03FFECA
:100F5000A5E700BF0D7D0000247C0000567C00004A
:100F6000287D0000B2F5802FF8B507460D461646DD
:100F700012D2042A0ED84449444A45484FF4C1735A
:100F800006F045F8434806F042F840484FF4C17176
:100F900005F098FD042200E00822B61AEC1D354445
:100FA00024F0070425F007052D1B172D4FEAD50661
:100FB0000ED83949354A364840F28B1306F027F8E7
:100FC000344806F024F8314840F28B1105F07AFDE0
:100FD00000233C603146E360A660204605F01DFE1C
:100FE00001218500471C204605F00DFE1B35ED084C
:100FF0002844B0420ED92949244A25484FF4CB73DE
:1010000006F005F8234806F002F820484FF4CB71AB
:1010100005F058FD002304F110021946BB422FDBF6
:101020002A462046002105F0EAFD00231A4619460B
:10103000204605F0BBFD771B20460122002105F06C
:10104000C6FD3A46294605F0DAFD2B4629462046DC
:10105000002205F0ABFD31462046002205F0CFFD11
:101060003B4631462046002205F0A0FD3146204691
:10107000012205F0ACFD2946BDE8F84005F086BE2A
:1010800042F8041B0133C9E7457D0000247C0000C1
:10109000567C0000667D00007F7D0000A87D00007A
:1010A00038B54468816004F00304032C054602D07F
:1010B0002CB1002000E0006800236B6038BD054AB9
:1010C00005490648452305F0A2FF0248452105F0E1
:1010D000F9FCEEE7D37D0000498B0000567C000050
:1010E000014805F04FBB00BFA878000008B5D0B19B
:1010F0004368042B11D100220368BFF35B8F53E8D0
:10110000001F012903D143E800200028F7D1BFF3D5
:101110005B8F074808BF104608BD3BB1006803F06D
:1011200001F90020F8E76FF4E040F5E70148F3E744
:10113000E98FFFFFEA8FFFFF10B5044618B90D4B8A
:101140000D485B689847616808290DD031F00403A9
:101150000AD011F0020108D00848214602F07EFFB3
:10116000002323600023636010BD2068142205F073
:101170009EFFF7E760000020F67D000018040020C5
:1011800010B5044618B9164B16485B689847636853
:10119000042B23D0082B21D0CBB92368BBB912482C
:1011A0004FF0FF324FF0FF33214602F0EBFE08B95B
:1011B00023681BB90A4B0D485B68984720681422C6
:1011C000002105F074FF636843F002036360206848
:1011D00006F069F9636843F00103636010BD00BF66
:1011E00060000020F67D0000180400201C7E000036
:1011F00008B508B34368042B10D101220368BFF37C
:101200005B8F53E8001F002903D143E8002000282A
:10121000F7D1BFF35B8F0BD1002008BD53B100683D
:101220004FF0FF324FF0FF3302F07CFF0028F3D085
:101230000348F2E70348F0E76FF4E040EDE700BF52
:10124000E98FFFFFEA8FFFFF08B5064906484023F4
:10125000142206F00CF9BDE808400449044805F0E2
:10126000F3BA00BF3804002018040020C078000042
:10127000B07800002DE9F04FB0F81C9085B019F05F
:10128000080F0446039222D001290CBF49F010092F
:1012900049F02009A0F81C901434204604F044FDC5
:1012A00068B99F4A9F49A048AC2305F0B0FE9F480B
:1012B000214605F0ACFE9A48AC2105F003FC039BE7
:1012C00083F31188BFF36F8F05B0BDE8F08F984F9F
:1012D000DFF8548209F00709022906D1204605F0FB
:1012E0003BFE0028D8D0012868D1D4F818B0A38BD1
:1012F000BBF1000F0ADA0026256823F00703C4E9D2
:10130000006643F00103A383019627E003F0070280
:10131000511F012934D8002123F00703062A25682C
:101320009BB2C4E900110CD18D422A4638BF0A464F
:101330002AB1E18B12680131E183002AF8D143F030
:101340000203A383204605F007FE06460028DBD0F3
:10135000A38B43F02003A38300230193A38B03F00B
:1013600007024A45029203D0A268002A40F0F080AA
:101370001DB9019A002A00F036814FF00009E9E01A
:10138000042A0ED123F007039AB2A283204605F067
:10139000E3FD054618B142F02002A2830025019525
:1013A000DCE74046634940F21B133A4605F02FFE46
:1013B00040F21B11384605F085FBEFE7032835D1D5
:1013C000B9F1000F0BD05C4940464FF4AB733A467D
:1013D00005F01DFE4FF4AB71384605F073FB236832
:1013E0005BB95649404640F257133A4605F00FFEA6
:1013F00040F25711384605F065FB23691B680193DD
:101400005BB94F4940464FF4AD733A4605F0FFFDD6
:101410004FF4AD71384605F055FBA38B23F007035D
:1014200043F00603A3830025AB4697E7042832D197
:10143000B9F1020F0BD04349404640F25D133A46E2
:1014400005F0E5FD40F25D11384605F03BFBE38B0E
:101450005BB13D4940464FF4AF733A4605F0D7FDC6
:101460004FF4AF71384605F02DFB23695B6801939B
:101470005BB93349404640F261133A4605F0C7FD77
:1014800040F26111384605F01DFBA38B23F00703E2
:1014900043F00403C6E7052832D1B9F1010F0BD0A0
:1014A0002A4940464FF4B2733A4605F0B0FD4FF476
:1014B000B271384605F006FB23685BB91F49404608
:1014C00040F265133A4605F0A2FD40F26511384638
:1014D00005F0F8FA23699B6801935BB91849404607
:1014E0004FF4B4733A4605F092FD4FF4B4713846A8
:1014F00005F0E8FAA38B23F0070343F0050391E717
:101500000C4940F26B133A46404605F080FD002539
:1015100040F26B11384605F0D5FA019584E700BF1B
:10152000EC7E0000127F0000567C0000297F000046
:10153000497E0000498B00006B7E0000777E000032
:101540009A7E0000B17E0000C77E0000D67E0000BB
:101550004FF0010943F0080304F1140AA383504635
:1015600004F0E2FB68B93A4A3A49AC23404605F038
:101570004EFD3948514605F04AFD3548AC2105F08D
:10158000A1FA039B83F31188BFF36F8FB9F1000FAA
:1015900038D1002D4BD1019B13B1304920469847DB
:1015A0004FF02003EFF3118B83F31288BFF36F8F9B
:1015B0005046CDF80CB004F0A9FB68B9244A28497C
:1015C0008123404605F023FD2648514605F01FFDC6
:1015D0001F48812105F076FA504604F0B5FBA38B35
:1015E00023F00803A383A38BDA0628D523F0100386
:1015F000A3830121B4F81C9009F0070900297FF4A6
:101600006BAE49E6A1680029C3D00B68029A002B93
:1016100038BF002399464B6820461E465B46B047BC
:10162000B9F1000FB5D0D9F800304946EEE72946A8
:10163000029A2D685B46204605F0AAFCA9E713F044
:1016400020011EBF23F02003A3830221D2E700BFA5
:10165000EC7E0000127F0000297F00006916000068
:101660003E7F0000537F0000F8B504460D4600F1B0
:1016700014064FF02003EFF3118783F31288BFF3B2
:101680006F8F304604F042FB68B90C4A0C490D4894
:10169000812305F0BCFC0C48314605F0B8FC074836
:1016A000812105F00FFA304604F04EFBA5613A4661
:1016B00020460121BDE8F840FFF7DCBDEC7E0000CC
:1016C0003E7F0000567C0000537F00002DE9F0476C
:1016D00004460F4605F072FC051E5EDB04F114099A
:1016E0004FF02003EFF3118A83F31288BFF36F8F5B
:1016F000484604F00BFB68B9384A39493948812318
:1017000005F085FC3848494605F081FC33488121C5
:1017100005F0D8F9484604F017FBE38BA28B4FF68F
:10172000FF718B4202F0070650D0022E24D1013304
:10173000E38335464FF00108484604F0F5FA68B9EE
:10174000264A2A492748AC2305F061FC2848494627
:1017500005F05DFC2148AC2105F0B4F98AF311884D
:10176000BFF36F8FB8F1000F17D000233246394610
:10177000204605F00DFC10E0930701D0062E0FD196
:1017800000233B606368F3B9C4E900773546FEB9CE
:10179000524602212046FFF76DFD2846BDE8F0873E
:1017A000052E18D0012E0BD012490E48124A40F2D5
:1017B000C91305F02CFC104840F2C91105F082F95C
:1017C0006FF0040504E01F606760DFE76FF00A0553
:1017D0004FF00008B0E76FF08505F9E7EC7E0000F8
:1017E0003E7F0000567C0000537F0000127F000007
:1017F000297F0000D67E0000497E0000F8B505462E
:101800004FF02003EFF3118683F31288BFF36F8F3D
:101810001E4804F07BFA68B91D4A1E491E48812300
:1018200005F0F5FB19491D4805F0F1FB1848812129
:1018300005F048F9154804F087FA194B1C68002C8C
:1018400038BF00245CB1174FD4E90132002D08BF26
:1018500013460BB1387898472468002CF4D10B4814
:1018600004F062FA68B90A4A0F490B48AC2305F044
:10187000CEFB06490D4805F0CAFB0548AC2105F032
:1018800021F986F31188BFF36F8FF8BD3809002066
:10189000EC7E00003E7F0000567C0000537F00007D
:1018A0003C09002044090020127F0000297F00002D
:1018B0001FB50F4B1A68BAB901221A600D4A07CA40
:1018C00001AB83E807000C4A4AB193E8070005F032
:1018D0000AFC002005B05DF804EBFFF78FBF82F330
:1018E0001188BFF36F8FF4E705B05DF804FB00BF0C
:1018F0002000002044090020E7700000F0B589B006
:101900006E4601460546304605F07AFB96E807002C
:101910001F4C84E807002078002837D01D4B00209A
:1019200018606B1C1DD091420CD21B491B4A1C48ED
:10193000CA2305F06CFB1B4805F069FB1748CA2158
:1019400005F0C0F8A7681848184A4FF4004600216F
:101950000023E6FB0701FEF7D3FB0121281A04F060
:10196000B5FB02F069FF0120FFF748FF94E807008C
:1019700005AB83E807000E4A1AB193E8070005F0AB
:101980009FFBFFF795FF03F09BFC207809B0F0BDAB
:101990004409002020000020E17F00006B7F000050
:1019A000567C0000218000003F420F0040420F00A3
:1019B000C17000000B6801330B60014B1B681847B6
:1019C00024000020014B1860704700BF2400002055
:1019D00007B50B46002102460191034801A9FEF715
:1019E0001BFE03B05DF804FBB519000008B5044602
:1019F0004FF02002EFF3118382F31288BFF36F8F51
:101A000005F009FD204600F087FC034805F0FFFAC9
:101A100000F00AF8FCE700BF4680000001491022F0
:101A20000A60704710ED00E072B6404080F3118804
:101A3000BFF36F8FBFF34F8F30BF62B6BFF36F8FAF
:101A4000704700BF72B6494081F3118820BF80F310
:101A5000118862B6704700BF01B572B60B4A906933
:101A600000281EBF0021916105F0FAFC62B6EFF379
:101A70000580A0F110004FEAC0000549014409C9E2
:101A80009847BDE80140034908470000280B0020A3
:101A9000EC760000BD1C000030BFFFF7FDBF00BFAB
:101AA00012498A684FF030001044EFF3098C80E847
:101AB000F01F202080F31288BFF36F8F0C4F4FF080
:101AC0000066CA698A603E60506F0023536780F3E6
:101AD000118804B5104600F0E7FABDE8044002F1B1
:101AE000300090E8F01F8CF309887047280B002025
:101AF00004ED00E01EF0040F0CBFEFF30880EFF3DD
:101B00000980816911F8021C0229FFD001B505F096
:101B100097FA01BD43B2002B08DB012200F01F0041
:101B200002FA00F05B09024A42F82300704700BF46
:101B300000E100E0054B420900F01F0053F82220AD
:101B4000012303FA00F01040704700BF00E100E0FD
:101B500070B54C1C072C05460E460FD9114A124988
:101B60001248582305F053FA1148314607232A46F4
:101B700005F04DFA0B48582104F0A4FF6BB2002B7E
:101B8000ACBF03F160430B4B4FEA4414B8BF05F000
:101B90000F05E4B2AABF03F561435C5583F8004327
:101BA00070BD00BF6F800000A5800000567C000063
:101BB000C080000014ED00E00B4A08B50B4B22F08A
:101BC0007F029A60BFF34F8FBFF36F8FD3F88820E7
:101BD00022F47002C3F8882002F01CF904F0E2FB42
:101BE00000F0F6F902F020F90000000000ED00E03E
:101BF000094A0A49936809689967094958674B680F
:101C000043F080534B60002383F31188BFF36F8F41
:101C10009368986F704700BF280B0020CC790000B4
:101C200000ED00E042F8203C009B42F81C3C0A49D1
:101C3000019B42F8183C029B42F8143C21F0010140
:101C40004FF0807342F8043C42F8081C0023203A0D
:101C500002654367704700BF297000000B4A0346C6
:101C6000906890B113F1160F406E05D0A0F12002DC
:101C70009A4206D8834204D281422CBF002101211E
:101C800000E00021002908BF00207047280B002039
:101C900008B5094B98600D46144600F005FA204639
:101CA00085F30988002163B681F31188BFF36F8F34
:101CB0000022002305F0B8F9280B0020044B996896
:101CC000D869884203D003494FF080520A607047B8
:101CD000280B002004ED00E0EFF30880EFF309810A
:101CE00001B5724600F0AEF801BD00BF002080F3E0
:101CF0001488BFF36F8F05F077FC00200D49086052
:101D0000BFF34F8F0C4880F3088800F07DF9202046
:101D100080F3118809484FF40261401880F3098864
:101D2000EFF314800221084380F31488BFF36F8F10
:101D3000FFF742FF94ED00E0C02100204023002087
:101D4000234B70B515469A6A9A6A9A6A04469007B8
:101D50001AD5586B9A6A120616D519B19A6A22F0EA
:101D600080029A629A6A9A6A9A6AD6060FD49B6A25
:101D700099070CD40024164A936A43F0FF03936238
:101D800000232B70204670BD6FF01500EAE7104E5F
:101D900073681A05EED52146FFF760FF044618B1B7
:101DA00080F309880224E6E7B36ADB06E2D5094A34
:101DB00009490A4840F2491305F029F9084805F095
:101DC00026F9044840F2491104F07CFED3E700BF35
:101DD00000ED00E0008100003A810000567C000028
:101DE000848100000D4B9A6A9A6A9A6A920508D516
:101DF0009A6B9A6A120404D518B19A6A22F40042C6
:101E00009A62064B9A6A9A6AD20558BF9A6A9A6A87
:101E1000002042F47F429A620870704700ED00E0B3
:101E2000074B9A6A9A6A9A6A9A6A9A6A9A6A9A6A44
:101E30006FEA02426FEA12429A620020704700BFC6
:101E400000ED00E070B5544B5C688AB00D46C4F3F9
:101E50000804002686F31188BFF36F8F02F07F43DA
:101E6000B3F17F4F08D102F00C03082B04D0120706
:101E70005CBF054601267DB9484A4949494840F2B8
:101E8000F23305F0C4F8484805F0C1F8434840F281
:101E9000F23104F017FE002500238DF80730E31E11
:101EA000032B72D8DFE803F002696D493A4BDC6A14
:101EB00014F0020469D1DA6A002A18DBDB6A5B00DD
:101EC0004ED5AB6933F8022C4DF602739A420DD011
:101ED00003F1604303F626631B780BB30DF1070291
:101EE00001212846FFF72CFF044600E02C689DF8EE
:101EF00007309BB92022294602A805F0CDF8099B9E
:101F0000002E44D0C3F3080222B96FEA53236FEACC
:101F10004323099302A9204605F090F80AB070BD4A
:101F2000224B1B782BB10DF107010120FFF75AFF5F
:101F3000DAE71F4B1B889BB213B1FFF771FFD3E7A2
:101F40001C49164A174840F2C32305F060F81A48A6
:101F500005F05DF840F2C321104804F0B3FDC6E778
:101F600014490E4A0F4840F2C72305F050F81348B1
:101F700005F04DF840F2C721EEE70DF10702002110
:101F8000AFE70DF107010020D0E70024AFE723F40D
:101F9000FF7323F00103BCE700ED00E000810000C7
:101FA000A7810000567C0000BA81000029ED00E006
:101FB0002AED00E0498B0000F88100001C8200003F
:101FC000024A536943F010035361704700ED00E08B
:101FD000044800232021C2180133302B82F800135B
:101FE000F9D1704700E100E0064A11680023C1F30F
:101FF000072118468B4200D170479360106101336E
:10200000F8E700BF90ED00E008B572B6002383F357
:102010001388FFF7E9FF144B4FF0FF32C3F880201D
:10202000C3F88420C3F88820C3F88C20C3F890201C
:10203000C3F89420C3F89820C3F89C20C3F88021EB
:10204000C3F88421C3F88821C3F88C21C3F89021F8
:10205000C3F89421C3F89821C3F89C2162B6BFF35A
:102060004F8FBFF36F8F08BD00E100E0064B9B6808
:10207000834207D1EFF3058323B1044A536843F049
:102080008053536003F084BB280B002000ED00E078
:10209000024B034A0348012100F068B80000042005
:1020A00000000020D4780000426E054B203A1A60F0
:1020B000044A2021C3E901121846012100F07EB82C
:1020C0005009002000000B15F0B51E4F00268E426F
:1020D00001DB1046F0BD446884B353B104F1FF3C0A
:1020E00014EA0C0F18D11F2C16D905681CEA050F2D
:1020F00012D1202C0568D0F808C0D2B20FD9B4F1A3
:10210000004F0ED8013CB4FA84F4C4F11F046400FB
:10211000072A4CEA040406D96FF01502D9E708240F
:10212000F6E73E24F4E725F01F05154345F01005BA
:1021300044F00104BA60FD6001323C6101360C30AC
:10214000C5E700BF90ED00E0034B05225A60BFF3E6
:102150004F8FBFF36F8F704790ED00E0BFF35F8F3D
:10216000014B00225A60704790ED00E038B50E4DEB
:1021700001232A780C46FFF7A7FF2870163011D1EB
:1021800040F21113094A0A490A4804F040FF214667
:10219000094804F03CFFBDE83840044840F2111102
:1021A00004F090BC38BD00BF880B00204C820000BA
:1021B000498B0000567C00008382000010B5124A53
:1021C000002312780C46FFF77FFF10F1160F08D09E
:1021D0000E4B0022072800DD10BD98601A61013007
:1021E000F8E70B4A0B490C484FF4987304F00FFFC3
:1021F00021460A4804F00BFFBDE8104004484FF4A4
:10220000987104F05FBC00BF880B002090ED00E0E7
:102210004C820000498B0000567C0000AF82000019
:10222000254910B50C68082C13D94FF4A473234A20
:102230002349244804F0EBFE23480822214604F0F9
:10224000E6FE1E484FF4A47104F03CFC4FF0FF3052
:1022500010BDFFF783FF48681C490022944200F13B
:102260000C0019D11A4B1C70FFF76EFF0B68C3F3FB
:102270000723082B0ED01749104A12484FF4D47385
:1022800004F0C5FE144804F0C2FE0C484FF4D471AB
:1022900004F018FC0020DBE78A6050F80C3C23F0C7
:1022A0001F03134343F01003CB6050F8043C43F08A
:1022B00001030B610132D1E7E07800004C8200009D
:1022C000498B0000567C0000DC82000090ED00E0AD
:1022D000880B00201083000060830000014B186011
:1022E000704700BF280000204FF02003EFF3118259
:1022F00083F31288BFF36F8F06490123C1F840357D
:102300004FF08041C1F8783582F31188BFF36F8FA9
:102310000020704700E001404FF08043C0B2C3F896
:102320001C05BFF34F8F0549054BCA6802F4E062F4
:102330001343CB60BFF34F8F00BFFDE700ED00E01C
:102340000400FA0520B1034B800143F00103184754
:10235000704700BFA07800002DE9F041104C071B2A
:10236000C7F347174FF00C0808FB07F8064608F1BB
:1023700048000D462044402104F0C0FE011E09DB48
:10238000084B4444C4E91035074B53F83730BDE8D7
:10239000F041184730462B46BDE8F041184700BFD2
:1023A0006C0900205F7100001479000038B5CCB2D0
:1023B000012C054609D9094909480A4A7E2304F037
:1023C00026FE08487E2104F07DFB2B690C2104FBCE
:1023D0000134A06C00F0070038BD00BFCD830000C1
:1023E000567C000090830000F8B5CCB2012C076940
:1023F000054616460BD918491848194A40F2531396
:1024000004F005FE164840F2531104F05BFB4FF058
:102410002003EFF3118283F31288BFF36F8F0C2335
:1024200003FB0471896C11F0C00101D08E4210D100
:1024300003FB047301219964002082F31188BFF328
:102440006F8F28B9696801EBC4046368984700205E
:10245000F8BD4FF0FF30F0E7CD830000567C000060
:102460009083000070B50D460649411A0446491193
:1024700005484022FFF7B8FF2B4601462046BDE83D
:10248000704018476C0900205C760000002270B58F
:10249000012104461046FFF75BFB0020FFF73AFBE3
:1024A0000F4801F0E7F80F4B984215D101F006F9FB
:1024B00026690D49304604F090FD00280BDB01250C
:1024C000B5642469084904F1200004F086FD002861
:1024D00001DB6565002070BD6FF00400FBE700BF05
:1024E000212500000000AD0B2479000001460C23DB
:1024F00009484B4370B5C418D4E91056002248333C
:102500002264184404F018FE2DB132462B460348CD
:10251000BDE87040184770BD6C0900205C76000073
:10252000012808B506D0032808D0A8B9104B9B6C29
:102530005B071BD1BDE80840FFF7D8BF0D490E4A25
:102540000E4840F2662304F062FD40F26621BDE8C9
:102550000840094804F0B6BA0649074A074840F25D
:102560006A2304F054FD40F26A21F0E708BD00BF81
:102570006C090020498B000090830000567C00000D
:1025800008B54FF02003EFF3118183F31288BFF3F6
:102590006F8F124A136843F0020013F001031060BA
:1025A0000CD04FF08042D2F80C34D2F80C2413F047
:1025B000010303D00A4804F0BFFD012381F3118811
:1025C000BFF36F8F23B1BDE808400020FFF78EBF37
:1025D000BDE80840012001F091B800BFC409002007
:1025E000B4090020094BBFF35B8F53E8002F22F0A2
:1025F000020143E800100028F7D1BFF35B8FD30737
:1026000002D4012001F0CEB8704700BFC4090020F9
:102610001FB500220123CDE90223094ACDF800D0DD
:102620006B46CDF804D004F0ACFD002805DB4FF478
:1026300080420023684603F09DF905B05DF804FB75
:102640007D7100002DE9F8434949BFF35B8F0546D2
:10265000012251E8003F41E800200028F9D1BFF3F2
:102660005B8FA3B9434944484B60CB608A60FFF756
:102670002DF800280BDA41494148424A40F226230E
:1026800004F0C5FC3F4840F2262104F01BFAADB32C
:102690006B1E012B56D8012D07D14FF08043D3F884
:1026A0001C3403F00303012B28D004F053FF04462D
:1026B00018B9354B1B78002B52D14FF02003EFF3A4
:1026C000118683F31288BFF36F8F01242F4FDFF839
:1026D000C480DFF8C4904FF08042D2F81834D2F8AA
:1026E0001824D2030CD503F00303012B01D0012DD4
:1026F00006D10CB386F31188BFF36F8FBDE8F88362
:10270000ACB13046FFF79EF94FF08042D2F8183551
:10271000002BE0D139680029DDD03B603B68012304
:10272000C2F81835C8F88031C9F80030D3E7002165
:10273000212002F0EFFFE7E74FF080430222C3F8C9
:102740000423DBE712490E480E4A4FF40E7304F0DF
:102750005EFCBDE8F8430B484FF40E7104F0B2B9CB
:102760004FF080430222C3F808230646AEE700BFBD
:10277000C80900205C0900208C090020F1830000BA
:10278000567C0000908300009A0F00200401004056
:10279000498B000000E100E00800004008B5084B4C
:1027A0000848186004F052FE38B10748FFF796FD5C
:1027B0000548FFF707F9002008BD6FF01200FBE79E
:1027C000CC0900208C760000CD2700000A2838B5FF
:1027D000074D044604D1286883680D215B6898473B
:1027E00028688368E1B25B689847204638BD00BF1F
:1027F000CC09002070B5056916460C4661B922491E
:10280000224A2348242304F002FC224804F0FFFB60
:102810001E48242104F056F9636863B91E491B4A17
:102820001B48252304F0F3FB1C4804F0F0FB174879
:10283000252104F047F96B685BB100229C4213D15B
:1028400023685AB9AA686B60944200D1AB60002338
:10285000236076B9002070BD0B46EFE71360AB68CC
:102860009C4208BFAA60F2E719681A460029F3D112
:102870003EB16B682360A8686C600028EAD1AC6048
:10288000E9E76FF01500E6E72D8400000084000002
:10289000567C000036840000458400005784000008
:1028A0002DE9F04704680F4616464CB32568DFF85B
:1028B0005880DFF85890DFF858A0002D38BF002569
:1028C000A3681E4214D0636863B949464523424653
:1028D000504604F09CFB0B4804F099FB4521404610
:1028E00004F0F0F8D4E901322146324038469847E6
:1028F00035B12B68002B38BF00232C461D46DFE77F
:10290000BDE8F08757840000008400006E8400005A
:10291000567C00000268530910B504462CD0012BE8
:102920004FF6FF7318BF002302F01F02D340DB07EE
:102930000BD414491448154A4FF4057304F067FB8F
:1029400012484FF4057104F0BDF8236803F01F022C
:102950005B0922600DD0012B11D00D490A480B4AAA
:1029600040F2192304F053FB084840F2192104F007
:10297000A9F84FF0A04010BD4FF0FF33D4E7054851
:10298000F9E700BFAD840000567C00007A840000A7
:10299000498B00000003005008B5094B1A786AB94A
:1029A0000121197006200521FFF7D2F80620FFF754
:1029B000B1F8044B4FF00042C3F80423002008BDD7
:1029C000890B002000600040B2F5A03F2DE9F743DD
:1029D000046907460E469046994601F01F0540F0EF
:1029E000AB8043681B7A01A845EA43130193FFF7C4
:1029F00091FF019B03F5E07350F82330D80700F1F5
:102A0000BB80E3680121B14019436369E1600121A2
:102A1000B140B8F5A03F0CBF0B438B436361A36982
:102A2000574AD7F81080B9F5C02F0CBF0B438B4322
:102A3000A3612369B9F5802F0CBF194323EA010173
:102A40007B6821611B7A45EA4315D2F804330020E4
:102A5000DBB200F5A27152F82110C1F305218D42BD
:102A600075D123FA00F1C90771D5830003F18043C2
:102A700003F5C043D3F8101521F00101C3F8101578
:102A800001238340C2F80833C0B200F02DFF28466E
:102A9000002104F0B8FBD8F80C00F04010F0010061
:102AA00047D0D8F81400F04010F0010457D0D8F8FF
:102AB0001830F340DB075FBFD8F8101021FA06F694
:102AC00006F00106C6F1020601A854BFF6B20326BD
:102AD00000F02CFF2B4B98423ED19DF804108B0048
:102AE00003F1804303F5C0432D02D3F8102522F4EF
:102AF0004F3222F44072C3F81025D3F8102505F4A4
:102B00007C5515438A0002F1804202F5C24245EA33
:102B100006460020C3F8106510601268D3F810252F
:102B200042F00102C3F81025154A01238B40C2F878
:102B3000043303B0BDE8F083B2F5005F7FF461AF0A
:102B4000012101FA06F3E16821EA03015DE70130A2
:102B500008287FF47EAF9AE76FF01200E9E7D8F813
:102B60001010F14001F00101C1F103012846C9B282
:102B700004F049FB2046DCE76FF08500D9E700BF91
:102B8000006000400000AD0B2E4BF7B52E4C4068A6
:102B90001340A34245D00ED8062B44D006D8002BB4
:102BA00041D0022B41D06FF0150038E0B3F5801F03
:102BB000F9D1012409E0254CA34238D0B3F5A00F88
:102BC00037D0B3F5800FEED10224D50682F480739E
:102BD00054BFC2F340160326C3F300279305C2F384
:102BE000402507D51305D0F804C024D501238B4018
:102BF000CCF80835037A01F01F0141EA431101A81E
:102C00000191FFF787FE019A45EA470343EA04234F
:102C100002F5E07243EA860340F82230002003B058
:102C2000F0BD0724D1E71C46CFE70424CDE70524F7
:102C3000CBE70324C9E7530542BF01238B40CCF8FF
:102C40000C35D7E70600F000060010000200400037
:102C5000F0B5002485B0CDE90044CDE90244264E0C
:102C600035685DB102A9254804F0E0FA03A9009097
:102C7000234804F0DBFA019034603368214C0022D1
:102C800001269446D4F8043306FA02F119421BD007
:102C9000910001F1804101F5C2410B68A3B102F539
:102CA000A27304AF54F82330C1F800C0C3F340301E
:102CB00007EB8000C3F3042350F8107C06FA03F3FB
:102CC0003B4340F8103C0B680132082ADAD1009AE5
:102CD0001AB10A490C48FFF7E3FD019A1AB10849F5
:102CE0000A48FFF7DDFD2DB1044804F0E3FA04487B
:102CF00004F0E0FA05B0F0BD7C610040BC76000055
:102D0000D476000000600040D4090020F0090020C3
:102D1000F0B54B79012B2AD0032B25D110268B79C6
:102D2000032B21D1CC792CB1012C1DD143685B68D8
:102D30009B0719D00A7912B1022A15D10E220B680D
:102D40004568B3F5164F2D6865D02DD8B3F5165FDD
:102D500064D016D8B3F5966F62D00AD8B3F5967FD3
:102D600061D0B3F5167F61D06FF0850052E0002688
:102D7000D5E7B3F5166F5CD0B3F5965FF4D1374B5A
:102D80003CE0B3F5E14F57D007D8B3F5615F55D0BC
:102D9000B3F5964FE8D1324B30E047F61227BB42ED
:102DA000E2D14FF4000329E0B3F5613F48D013D8D6
:102DB000B3F5963F47D009D84DF6C027BB4244D063
:102DC000B3F5614FD0D14FF46B0317E0B3F5E13F9A
:102DD000CAD14FF0EB7311E0B3F5612F38D008D8AA
:102DE000204FBB4237D0B3F5E12FBDD14FF0E863A0
:102DF00004E01D4FBB42B7D14FF08053C5F82435D6
:102E0000036903C9344322430433C5F86C2583E8BE
:102E100003000020F0BD4FF41D03EFE7134BEDE777
:102E20004FF49E23EAE74FF4A033E7E74FF41C3357
:102E3000E4E74FF41D23E1E70D4BDFE70D4BDDE742
:102E40004FF06C73DAE70C4BD8E74FF46503D5E726
:102E50004FF07063D2E74FF08063CFE700B013000C
:102E600000A04E0090D0030040420F000050270009
:102E700000C0750000F03A0000903A010268530962
:102E800010B504462CD0012B4FF6FF7318BF00235A
:102E900002F01F02D340DB070BD414491448154A33
:102EA0004FF4057304F0B3F812484FF4057103F0C2
:102EB00009FE236803F01F025B0922600DD0012B7D
:102EC00011D00D490A480B4A40F2192304F09FF82B
:102ED000084840F2192103F0F5FD4FF0A04010BD65
:102EE0004FF0FF33D4E70548F9E700BFAD84000099
:102EF000567C00007A840000498B000000030050DB
:102F0000F8B5066905460F4604F024FB10B92C4BB2
:102F10001B7883B94FF02003EFF3118483F31288F9
:102F2000BFF36F8F284604F034FA28BB84F311886E
:102F3000BFF36F8FEEE76424284604F02AFA70B9D5
:102F4000012004F079FA013CF6D10021212002F0A1
:102F5000E1FBF0E784F31188BFF36F8FF5E74FF0E3
:102F60002003EFF3118483F31288BFF36F8F284699
:102F700004F00FFA0028EDD006F8107F69680B689E
:102F80000122C3F84465C3F848250022C3F8202174
:102F9000D3F82001C3F85821D3F858214A68D20643
:102FA00041BF0822C3F800254FF48002C3F8042370
:102FB00001229A6084F31188BFF36F8FF8BD00BFC0
:102FC0009A0F00202DE9F341456806692C6800231B
:102FD000C4F800350746AB68306001A80193FFF7DD
:102FE0004DFF019A01239340C0F80835AB68019367
:102FF00001A8FFF743FF019B03F5E073032240F8AC
:103000002320EB68591C0CD001A895F81880019377
:10301000FFF734FF019B03F5E0734FEA880240F8A5
:103020002320D5E90223C4F80C25C4F814352B69F4
:103030005A1C0CD001A895F819800193FFF71EFFC8
:10304000019B03F5E0734FEA880240F823206B6987
:10305000581C13D001A80193FFF710FF019A012318
:103060009340C0F808356B69019301A8FFF706FF8C
:10307000019B03F5E073032240F82320D5E90432D5
:103080003969C4F808253846C4F810350431FFF70B
:103090003FFE0746002845D16B68190719D506F190
:1030A000120000F07BFC234B98423FD1B07CC30060
:1030B00003F1804303F5F83304F10C0204F5907139
:1030C000C3F81015C3F814251B4A01238340C2F826
:1030D00004350823C4F80035EB6801330CD0002315
:1030E000C4F81031D4F8103106F11103C4F83435A6
:1030F0000123C4F8383523606B681A075CBF4FF4AE
:103100008072C4F80423DB0644BF4FF48003C4F884
:10311000043310360023C4F84465C4F8483501234D
:10312000A360E360384602B0BDE8F0816FF00407A9
:10313000F8E700BF0000AD0B00F00140194970B581
:10314000044622F07F460868C1E90023A6F5001373
:10315000101AB3F5400F4FF000050AD2124B196850
:103160000A060B0A9219114943F10003C1E9002331
:10317000012502F0FBFFA30003F1804303F5883330
:10318000D3F84025B2420BD11DB94FF40002C3F869
:103190004025074B4FF4803000FA04F4C3F8444351
:1031A00070BD00BFD8020020100A0020C00200201D
:1031B0000010014010B501238340114ABFF35B8F1B
:1031C000DC4352E8001F01EA040C42E800CEBEF1E5
:1031D000000FF6D1BFF35B8F4FF4803202FA00F09C
:1031E00002F1804202F58052C2F80803BFF35F8FFC
:1031F000BFF36F8F0B4214BF0120002010BD00BF32
:103200000C0A00200123124ABFF35B8F834052E86F
:10321000001F194342E8001CBCF1000FF7D1BFF3B7
:103220005B8F0C4A4FF480338340C2F804330A4B5F
:10323000BFF35B8F1B68BFF35B8F23FA00F0C307FC
:1032400042BF064B4FF40032C3F80021704700BF65
:103250000C0A002000100140080A002000E100E0F4
:103260000D4B1B68190A1806BFF35F8F0B4BD3F881
:103270000435C01841F10001B3F5801F0AD2084B94
:10328000D3E90023994208BF904203D210F1807025
:1032900041F10001704700BF100A002000100140FA
:1032A000C00200202DE9F04F85B016461F460546A6
:1032B000FFF780FF0190FFF7D3FFB94208BFB0428C
:1032C0007FD2B6EB000867EB010900234FF0807254
:1032D0004B4508BF4245C0F08580444B03EB0513C6
:1032E000D3E902239F4208BF964254D04FEA850992
:1032F0004FF4803B09F1804905F150080BFA05F2C3
:1033000009F588394FEA88081FFA88F80292384A86
:10331000D9F8400526F07F4308F1804808F5883841
:103320001C469346D2F804A5A0EB0A0020F07F408B
:103330002AF07F410128C9F8401505D103931320D5
:1033400004F014F92A4A039B02990AF1020CA4EB37
:103350000C0020F07F40B0F5000F88BF64460020CD
:10336000C8F80000D8F80000CBF8441324F07F40E0
:10337000C9F84005DBF80405824506D0201A02385A
:1033800020F07F40B0F5000F19D8E41A24F07F44F4
:10339000321947F10003154C290104EB0510C0E96F
:1033A00002230E9A0F9B625043600024019B13B1CD
:1033B0002846FFF727FF204605B0BDE8F08F2046DE
:1033C000B0E701230B4ABFF35B8FAB4052E8001F0D
:1033D000194342E800100028F8D1BFF35B8F324652
:1033E0003B46D8E76FF01504E0E700BFC8020020B5
:1033F00000100140080A00202DE9F743344CD4F8AE
:1034000004339A0709D5334B1A6832B100221A6087
:10341000314A1B681368013313604FF02003EFF348
:10342000118283F31288BFF36F8FD4F80433DB0368
:1034300012D5BFF35B8F294B53E8001F21F0010029
:1034400043E80006002EF7D1BFF35B8F244B002921
:1034500036D11968002933D1002382F31188BFF3D4
:103460006F8F53B3FFF7FCFE06464FF02003EFF3D8
:10347000118083F31288BFF36F8F1A4BD3E902894F
:10348000494508BF46454FF000021ED34FF0FF36B6
:103490004FF0FF37D3E90015C3E902671A604FF414
:1034A0008033C4F8483380F31188BFF36F8F21B1A4
:1034B000009542464B460020884703B0BDE8F083A4
:1034C000002119601B680123C7E71146EBE700BF25
:1034D0000010014004110140100A0020080A0020D9
:1034E00040110140C802002073B51A4B1A4D002448
:1034F0004FF0FF304FF0FF31C5F80845C3E9020136
:103500004FF48033C5F80433144B02264FF40032D5
:103510000121C5F804631120C3F880212246FEF77B
:1035200017FB1120FEF7F6FA0D4AC5F804630123D4
:1035300013600C4A2B6013600B4B0C4A00930194F0
:1035400000232046FFF7AEFE3046FFF77BF820460B
:1035500002B070BDC80200200010014000E100E090
:10356000081001400C0A00203D310000FFFF7F00E1
:10357000144B13B5B0F1FF3F08BF1846441E002C92
:103580001EDD9C42A8BF1C46FFF76AFE0E4B0F498A
:10359000D3E90023801AB0F5000F28BF00240130C2
:1035A000044408480091844228BF044612194FF091
:1035B0000000019043F10003FFF774FE02B010BD5C
:1035C0000024E1E7FFFF7F00D80200203D3100002A
:1035D00008B5FFF745FE024B1B68C01A08BD00BFC7
:1035E000D802002010B5064C06490748224617238A
:1035F00003F00DFD20461721BDE8104003F062BA2C
:10360000EC840000498B0000567C000008B578B1BE
:1036100001281CD0144A154915484FF44F7303F084
:10362000F6FC11484FF44F7103F04CFA00200DE006
:1036300031B14FF08043D3F8183403F003030B602B
:103640004FF08043D3F81804C0F3004008BD31B1F7
:103650004FF08043D3F80C3403F001030B704FF0AC
:103660008043D3F80C04EFE728850000498B000065
:10367000567C000010B5044648B90A490A480B4A6E
:10368000B52303F0C4FC0948B52103F01BFA084B2D
:103690001A7922B9012207481C609A8010BD064899
:1036A000FCE700BF99850000567C00005C850000A7
:1036B000140A00200000AD0B0C00AD0B08B50B4B3D
:1036C0001B794BB90A490B480B4ACE2303F09FFCE8
:1036D0000948CE2103F0F6F90020FEF72BFA18B9BD
:1036E000BDE80840FEF716BA08BD00BF140A002066
:1036F000A7850000567C00005C850000224B1B79EA
:1037000013B504465BB921492148224A4FF4857319
:1037100003F07DFC1F484FF4857103F0D3F974B1B9
:10372000012C27D01B4A1C4919484FF49E7303F003
:103730006EFC18484FF49E7103F0C4F916E001A91D
:103740002046FFF763FF4FF0804388B1019A012ABA
:103750000ED1C3F81825114B00221A601B684FF0D8
:1037600080430222C3F8042301229A6002B010BDF4
:103770000022EEE70A4B00221A601B684FF08043DC
:10378000C3F804431C60F1E7140A0020A785000079
:10379000567C00005C850000498B0000040100405D
:1037A0000001004037B52F4D2A7904465AB92E49F9
:1037B0002E482F4A40F2431303F029FC2C4840F2D4
:1037C000431103F07FF97CB1012C28D02949274807
:1037D000274A40F25F1303F01AFC254840F25F11BC
:1037E00003F070F903B030BD4FF080430222C3F8FC
:1037F0000823C3F8044103F5827301221B681E4BA2
:1038000042F210741A6000210846FFF7FFFE0028FC
:10381000E8D0012003F010FE013CF4D1E2E74FF0C4
:1038200080430022C3F80843C3F8002103F58073E6
:103830001B68124B1C608DF8074042F210740DF1AA
:1038400007010120FFF7E2FE10B900236B71C9E701
:103850009DF807000128F8D103F0EEFD013CEED100
:10386000F3E700BF140A0020A7850000567C000083
:103870005C850000498B00000C0000400400004003
:10388000164B07B51A686AB100221A601B684FF020
:1038900080430122C3F80823114B587910B95A719B
:1038A0001B6898470F4B1A686AB10020186001A97D
:1038B0001B68FFF7ABFE019A4FF0804332B901223B
:1038C000C3F818259A6003B05DF804FB0222C3F820
:1038D0000823034B01201B689847F4E700010040D0
:1038E000140A002004010040012303FA00F010F044
:1038F000FF0F12D04FF02003EFF3118183F31288F2
:10390000BFF36F8F064AD36D23EA0000D06581F3C1
:103910001188BFF36F8F034870470348704700BF9B
:103920001C0A00200000AD0B0400AD0B2DE9F04196
:103930000546DFF860E01648DFF85C800024FF22CF
:103940000126E3B24FF02001EFF3118C81F31288CE
:10395000BFF36F8F22FA03F1C9070AD5DEF85C10B6
:1039600006FA03F7394201BF3943CEF85C104046EE
:103970002B708CF31188BFF36F8F404505D006FA8A
:1039800003F39A4304F10104DBD1BDE8F08100BFE9
:103990000200AD0B1C0A00200000AD0B2DE9F04128
:1039A000144A154E154F0546154800244FF0010ED8
:1039B0005FFA84FC4FF02003EFF3118883F3128841
:1039C000BFF36F8F0EFA0CF3134207D031680B422E
:1039D00001BF1943316085F800C0384688F311886B
:1039E000BFF36F8FB84203D09A4304F10104DFD1D3
:1039F000BDE8F081FFFF0F007C0A00200000AD0B46
:103A00000200AD0B034B1868A0F10803584258415F
:103A1000704700BF30010010064B1B68082B06D111
:103A2000054B1B68052B02D8044AD05C7047002068
:103A3000704700BF3001001034010010CB8500003A
:103A4000024AD2F80034002BFBD0704700E001405E
:103A500010B5FFF7D7FF40B14FF080430022C3F805
:103A60000C21C3F81021C3F83825FFF7CBFF00283D
:103A700046D04FF080525B4BD2F80414C3F82015A7
:103A8000D2F80814C3F82415D2F80C14C3F828157A
:103A9000D2F81014C3F82C15D2F81414C3F830154A
:103AA000D2F81814C3F83415D2F81C14C3F8401512
:103AB000D2F82014C3F84415D2F82414C3F84815DA
:103AC000D2F82814C3F84C15D2F82C14C3F85015AA
:103AD000D2F83014C3F85415D2F83414C3F8601572
:103AE000D2F83814C3F86415D2F83C14C3F868153A
:103AF000D2F84014C3F86C15D2F84424C3F87025EA
:103B0000FFF78AFF10B1384B384A1A60FFF784FF7D
:103B100018B1374BFB22C3F81825FFF77DFF48B1DA
:103B20003449354B0A681B6822F00F0203F00F037B
:103B300013430B60FFF770FF18B1304B4FF4007266
:103B40001A60FFF75FFF48B14FF08043D3F80024BD
:103B5000D20744BF6FF00102C3F80024284B1B6852
:103B6000082B0ED1274B1B68052B02D8264AD35CA5
:103B70003BB14FF01023D3F808224FF08043C3F835
:103B800058254FF01023D3F80022002A03DBD3F886
:103B90000432002B22DA1D490123C1F80435FFF756
:103BA0004FFF4FF010201224C0F80042FFF748FFEB
:103BB000C0F80442FFF744FF0023C1F80435FFF7C3
:103BC0003FFFBFF34F8F1249124BCA6802F4E06205
:103BD0001343CB60BFF34F8F00BFFDE70E4B0F4A7F
:103BE0001A6010BD00C000408C56004048810300A0
:103BF00000F00040E40E00405802001040960240E1
:103C00003001001034010010C585000000E00140C3
:103C100000ED00E00400FA05540000200090D003FD
:103C200010B5144C144A1549032323616361144BE6
:103C3000A261E3614FF4806323620023A3626362A5
:103C4000E36222660F4A6266E01D1022A2662367C5
:103C5000E366636703F006FABFF35F8F0A49204605
:103C600003F000FABFF35F8F2023A371BFF35F8FD0
:103C700010BD00BF800A0020D1850000DA85000059
:103C80009A0B00208A0B0020DE8500000E4B70B5D9
:103C900053F82040013053F82060A64200D870BD90
:103CA000D4E900352846984765B1EB6830B1002863
:103CB000B8BF4042FF28A8BFFF2018705A7842F0D2
:103CC00001025A700834E8E7B8790000F8B50446F4
:103CD0000E464FF02003EFF3118783F31288BFF3F2
:103CE0006F8F01F04FFD31460546204603F094FBEF
:103CF000042C0CD10A490B4A0B488F2303F087F997
:103D00000A4803F084F907488F2102F0DBFE87F3AD
:103D10001188BFF36F8F2846BDE8F840FEF7A6B9BB
:103D200007860000E5850000567C00002486000020
:103D3000114CA26892F90E20002A08B509DA0F4941
:103D40000F48104A462303F062F90E48462102F05C
:103D5000B9FE4FF02002EFF3118382F31288BFF314
:103D60006F8F02F06BF9A061FDF7C8FD0028F0D15C
:103D7000FDF75AFEEDE700BF280B00207A86000011
:103D8000567C00005986000030B5002387B0012220
:103D9000CDE904230F22CDE902320D4C0D4A0193E7
:103DA0000D49182304EBC01403FB00234FF4B07536
:103DB000009305FB0011094B4FF4A072204601F05F
:103DC00063FE637B23F00403637307B030BD00BF61
:103DD000E0020020280B0020E0210020313D0000FF
:103DE00008B50A4B012202201A70FFF74FFF02F0BC
:103DF000F3FA0320FFF74AFF01F0F8FEFCF7AAFBF5
:103E0000034A137B23F00103137308BD9A0F0020AC
:103E1000600300200248034A0021121A03F047B948
:103E2000400100205811002080B5DFF8D880A6B0EE
:103E300088F308882D4D2E4E6B69DFF8CC9043F443
:103E4000007300246B61E02385F82230EC772C7638
:103E50006C76AC7685F820406B6A43F4E0236B62A5
:103E600085F82340FEF7ACF8FDF7D8FD4FF0FF339F
:103E7000AB62EB62FEF7D4F9FEF70AF940F20113E8
:103E8000ADF8243006ABB360CDE91F4403F0DDFA92
:103E90002046FFF7FBFE0120164DFFF7F7FE01F06D
:103EA000DBFA154B0593012314490094CDE9034334
:103EB0004FF480624B46CDE901442846F56101F09C
:103EC000E3FD6A7B22F004026A730746284600F08D
:103ED0000FFF2046FFF758FF094BF3604A4639466B
:103EE00028463475C6F80480FDF7D2FE00ED00E0E8
:103EF000280B002060030020A2860000C01D0020C7
:103F0000E0020020602B0020E13D00002DE9F0419F
:103F1000164D174C174EA846AC420CD916491748F7
:103F20003C23324603F073F8154803F070F83C2147
:103F3000304602F0C7FD444502D30020BDE8F081C1
:103F4000D4E9042141EA020313F003030BD1E06832
:103F5000A361834201D12034DEE7A7690F600133FA
:103F6000A1611144F5E76FF01500E7E7D8000020E4
:103F7000D8000020A7860000CC860000567C0000F8
:103F8000E98600002DE9F74304460E46904699461F
:103F900000F108054FF02003EFF3118783F3128837
:103FA000BFF36F8F284601F0B1FE68B9244A254956
:103FB0002548812303F02BF82448294603F027F8ED
:103FC0001F48812102F07EFD284601F0BDFEA36955
:103FD000EBB133601B68A361E3690133E361002443
:103FE000284601F0A1FE68B9154A19491648AC23C4
:103FF00003F00DF81748294603F009F81048AC21E2
:1040000002F060FD87F31188BFF36F8F13E058EA69
:10401000090203D133606FF00B04E1E72246CDE9DA
:1040200000893946284601F015F8044618B90A4BAC
:104030009B685B693360204603B0BDE8F08300BF36
:10404000EC7E00003E7F0000567C0000537F0000A5
:10405000127F0000297F0000280B00202DE9F0418D
:1040600004460E4600F108054FF02003EFF31187D8
:1040700083F31288BFF36F8F284601F047FE68B9BB
:10408000224A23492348812302F0C1FF22482946BE
:1040900002F0BDFF1D48812102F014FD284601F009
:1040A00053FED4F81880B8F1000F0FD1204601F06C
:1040B00083F958B132684261C0F8788000F018FE88
:1040C00039462846BDE8F04100F072BB3368A2696A
:1040D0001A603368A361E369013BE361284601F09C
:1040E00023FE68B9094A0D490A48AC2302F08FFF44
:1040F0000B48294602F08BFF0448AC2102F0E2FC99
:1041000087F31188BFF36F8FBDE8F081EC7E00006C
:104110003E7F0000567C0000537F0000127F0000AD
:10412000297F00002DE9F341044616461F46EFF3B0
:10413000058363B17049714A7148652302F067FFD6
:10414000704802F064FF6D48652102F0BBFC4FF03F
:104150002003EFF3118883F31288BFF36F8F6A484F
:1041600001F0D4FD68B9694A69496548812302F0C4
:104170004EFF6549674802F04AFF6448812102F01A
:10418000A1FC614801F0E0FDE368634AFBB1A0686F
:10419000916888423DD056EA07033CD15A4801F065
:1041A000C3FD68B9594A5D495548AC2302F02FFF59
:1041B00055495B4802F02BFF5448AC2102F082FCC9
:1041C00088F31188BFF36F8F6FF00F001EE09168C6
:1041D00091F90E104C4821610133E3609368A360AC
:1041E00001F0A2FD68B9494A4C494548AC2302F0A8
:1041F0000EFF45494A4802F00AFF4448AC2102F04C
:1042000061FC88F31188BFF36F8F002002B0BDE816
:10421000F0812169DEE791F90E1090F90E30994294
:10422000A8BF19466FF07E029142B8BF11468B427B
:1042300044DD00F03FFF0546CDE9006732482246E5
:10424000414600F007FF0028E0D04FF02003EFF3D5
:10425000118683F31288BFF36F8F2B4801F056FD50
:1042600068B92A4A2A492648812302F0D0FE264905
:10427000284802F0CCFE2548812102F023FC224888
:1042800001F062FD236821699C420AD04BB193F989
:104290000E309942A8BF19466FF07E039942B8BF0D
:1042A0001946A06890F90E30994209D16DB11648AF
:1042B000314600F07DFA6FF00A00A7E70025BBE762
:1042C00000F0F8FE0028F2D1F0E70F4801F02CFDD5
:1042D00068B90E4A11490A48AC2302F098FE0A490F
:1042E0000F4802F094FE0948AC2102F0EBFB86F384
:1042F0001188BFF36F8FDEE72A8700000887000070
:10430000567C00003C870000500B0020EC7E000033
:104310003E7F0000537F0000280B0020127F00002A
:10432000297F000038B50446EFF3058363B1524995
:10433000524A5348C72302F06AFE524802F067FE11
:104340004E48C72102F0BEFBA368002B00F08D8011
:104350004D4DAA68934240F08B80E3684BB94B49BE
:104360004748464ADF2302F052FE4448DF2102F06C
:10437000A9FBEFF3058363B13F49454A4048FD235C
:1043800002F045FE434802F042FE4148FD2102F0A2
:1043900099FBAB68DB7B012B0CD13F493C4A384889
:1043A000FE2302F034FE3B4802F031FE3848FE2185
:1043B00002F088FBAA68D37B013BD373E368012B2F
:1043C00005D9013BE36000F07BFF002038BD4FF0D2
:1043D0002003EFF3118583F31288BFF36F8F2F480B
:1043E00001F094FC68B92E4A2E492548812302F039
:1043F0000EFE2A492C4802F00AFE2948812102F0CB
:1044000061FB264801F0A0FCA068216990F90E30FC
:10441000994201D000F04EFE204600F0CDFFA06092
:1044200058B190F90E2022610022826700F060FCF2
:104430001A48294600F0BCF9C5E7E060174801F0CA
:1044400073FC68B9164A19490D48AC2302F0DFFD28
:104450001249174802F0DBFD1148AC2102F032FB93
:1044600085F31188BFF36F8FADE76FF01500ADE7EF
:104470004FF0FF30AAE700BF2A870000088700003E
:10448000567C00003C870000280B0020618700005C
:1044900078870000A3870000A6870000500B00204B
:1044A000EC7E00003E7F0000537F0000127F000082
:1044B000297F00002DE9F04704469DF820A00E4614
:1044C0009046994600F108054FF02003EFF311875D
:1044D00083F31288BFF36F8F284601F017FC68B989
:1044E000394A3A493A48812302F091FD3948294630
:1044F00002F08DFD3448812102F0E4FA284601F0F3
:1045000023FCBAF1000F00D0666804F10C0000F043
:1045100053FF58B100248467C0F8148000F0E8FB12
:104520002846394600F044F900201EE0B9F1000F9A
:104530002ED0082101F092FFC8B9284601F0F4FB03
:1045400068B9214A24492248AC2302F060FD23487F
:10455000294602F05CFD1C48AC2102F0B3FA87F357
:104560001188BFF36F8F6FF00B00BDE8F087012358
:10457000C0F804800360036803F0030366B922688F
:104580001343036063682060002BC9D16060C7E7F4
:10459000C8F800904046EEE7326832F003020BD1D3
:1045A0006268036012B9C4E90000B9E7136803F058
:1045B000030303431360E9E713430360336803F025
:1045C000030318433060ABE7EC7E00003E7F000041
:1045D000567C0000537F0000127F0000297F0000FE
:1045E0002DE9F74306469046994600F108054FF03D
:1045F0002003EFF3118783F31288BFF36F8F2846F0
:1046000001F084FB68B9254A25492648812302F038
:10461000FEFC2548294602F0FAFC2048812102F0E0
:1046200051FA284601F090FB346834B3236872686D
:1046300023F0030394422046336008BF73600121D6
:1046400002F038FF0446284601F06EFB68B9134AB1
:1046500016491448AC2302F0DAFC1548294602F04A
:10466000D6FC0E48AC2102F02DFA87F31188BFF377
:104670006F8F204603B0BDE8F08358EA0903E2D00B
:10468000CDE9008906F10C023946284600F0E2FC2B
:104690000028EED1074B9B685C69EAE7EC7E0000DE
:1046A0003E7F0000567C0000537F0000127F000018
:1046B000297F0000280B002010B5084C23685BB14F
:1046C000FEF786FF03462068054A0344BDE8104014
:1046D0001361002101F0FABC10BD00BF600B002087
:1046E000280B0020F8B504460D464FF02003EFF3E9
:1046F000118683F31288BFF36F8F234801F006FB06
:1047000068B9224A22492348812302F080FC1E49CD
:10471000214802F07CFC1D48812102F0D3F91A489F
:1047200001F012FB1D4B00224FF4004740F2E7302E
:1047300000211A61E7FB040100234FF47A72FBF7B2
:10474000DFFC002C164B1BDC1860164B1D60FFF7BE
:10475000B3FF0D4801F0E8FA68B90C4A12490D4858
:10476000AC2302F054FC0849104802F050FC074802
:10477000AC2102F0A7F986F31188BFF36F8FF8BD63
:104780000228B8BF0220DFE7580B0020EC7E0000B3
:104790003E7F0000567C0000537F0000280B002065
:1047A000600B00205C0B0020127F0000297F0000BE
:1047B00038B504460D46E9B9EFF30583D3B9194B73
:1047C000DA699B689A4215D001F0AEFA68B9164AC8
:1047D00016491748C32302F01AFC1648214602F076
:1047E00016FC1148C32102F06DF9BDE838400020E5
:1047F000FDF7FEB9204601F097FA68B90A4A0B495D
:104800000B48AC2302F003FC0A48214602F0FFFBF0
:104810000548AC2102F056F985F31188BFF36F8F7C
:1048200038BD00BF280B0020EC7E0000127F000086
:10483000567C0000297F000038B54FF02003EFF3CD
:10484000118583F31288BFF36F8F294801F05EFA58
:1048500068B9284A28492948812302F0D8FB24490D
:10486000274802F0D4FB2348812102F02BF920488D
:1048700001F06AFAEFF3058363B12249224A1F4827
:10488000FD2302F0C4FB214802F0C1FB1E48FD21BC
:1048900002F018F91E4CA268D27B012A0CD11D49E6
:1048A000194A1648FE2302F0B2FB184802F0AFFB8B
:1048B0001548FE2102F006F9A268D37B013BD373B1
:1048C0000B4801F031FA68B90A4A13490B48AC2386
:1048D00002F09DFB0649114802F099FB0548AC2106
:1048E00002F0F0F885F31188BFF36F8F38BD00BF79
:1048F000580B0020EC7E00003E7F0000567C00003C
:10490000537F00002A87000078870000A3870000FB
:10491000280B0020A6870000127F0000297F0000DE
:104920000C4B994210B50C460BD10B490B480C4A65
:1049300040F2B53302F06BFB094840F2B53102F0AA
:10494000C1F8D4E9003213605A600023C4E900338F
:1049500010BD00BFE0020020F9870000567C000077
:10496000D7870000836810B504465BB90B490C4833
:104970000C4A40F2532302F04AFB0A4840F253210A
:1049800002F0A0F8A0682146FFF7CAFF637B23F07E
:10499000020363730023A36010BD00BF1A880000E8
:1049A000567C0000D787000038B504464FF020033E
:1049B000EFF3118583F31288BFF36F8F194801F06D
:1049C000A5F968B9184A19491948812302F01FFB53
:1049D0001449184802F01BFB1348812102F072F8B9
:1049E000104801F0B1F92046FFF7BCFF0D4801F077
:1049F0009BF968B90C4A10490D48AC2302F007FB3B
:104A000008490E4802F003FB0748AC2102F05AF8AF
:104A100085F31188BFF36F8F04F11800BDE83840AB
:104A200001F0BEBA580B0020EC7E00003E7F000073
:104A3000567C0000537F0000127F0000297F000099
:104A400038B502461448154D02F06AFD044600B917
:104A5000EC68CAB9AB6863B91149124A124881239C
:104A600002F0D5FA114802F0D2FA0E48812102F084
:104A700029F8AB685A7BD20606D1A26922B9DA8935
:104A80007F2A01D9EB6138BDAB68A34201D0FFF7A3
:104A900013FEEC61F7E700BF480B0020280B002055
:104AA00031880000D7870000567C0000A3870000F3
:104AB00070B590F90D20437B002A044606DA03F016
:104AC0007F03437301461F48FFF72AFF637B63F0B0
:104AD0007F0363731C4B9C4209D11C491C481D4A2F
:104AE000B12302F094FA1B48B12101F0EBFF1A4AFE
:104AF0001146556A51F8203F8B4208BF0023002B16
:104B000038BF0023CBB194F90E6093F90E008642B2
:104B10000FD0801B00280CDD5968C4E900310C60FF
:104B20005C609068031B5842BDE870405841FFF735
:104B300087BFAB4201D01B68E4E7C4E900152C60D5
:104B40005462EEE7480B0020E0020020F9870000E5
:104B5000567C0000D7870000280B002070B5044663
:104B60004FF02003EFF3118583F31288BFF36F8FAB
:104B70002A4801F0CBF868B9294A2A492A488123F2
:104B800002F045FA2549294802F041FA24488121DA
:104B900001F098FF214801F0D7F8254B254A986885
:104BA00011688842194618D1FFF786FD1B4801F0AD
:104BB000BBF868B91A4A20491B48AC2302F027FA0F
:104BC00016491E4802F023FA1548AC2101F07AFF7D
:104BD00085F31188BFF36F8F70BD00261660184AE9
:104BE0001268BAB1C2897F2A14D8427BD20611D189
:104BF000144A90F90E60126896420BDB124A9042FA
:104C000008D01A69A24202DCFFF752FFCCE7121B60
:104C10001A61CBE700230B61C8E700BF580B0020E7
:104C2000EC7E00003E7F0000567C0000537F0000B9
:104C3000280B0020540B0020127F0000297F000069
:104C4000600B00205C0B0020E002002070B590F9A2
:104C50000D20437B002A04463EDBDA063CD1856901
:104C6000002D39D163F07F0343731C4B984209D167
:104C70001B491C481C4AB12302F0C9F91A48B1214A
:104C800001F020FF19490B4653F8200F984218BF36
:104C90000546002D1A462B464D6A38BF0023B3B196
:104CA00094F90E6093F90E0086420CD0801B002808
:104CB00009DD5A68C4E9003214605C60BDE87040E8
:104CC0000020FFF7BDBEAB4201D01B68E7E7C4E997
:104CD00000252C604C62F1E770BD00BFE0020020AF
:104CE000F9870000567C0000D7870000280B0020C1
:104CF00038B504464FF02003EFF3118583F3128893
:104D0000BFF36F8F174801F001F868B9164A1749C9
:104D10001748812302F07BF91249164802F077F90F
:104D20001148812101F0CEFE0E4801F00DF8204619
:104D3000FFF78CFF0B4800F0F7FF68B90A4A0E49ED
:104D40000B48AC2302F063F906490C4802F05FF906
:104D50000548AC2101F0B6FE85F31188BFF36F8FD3
:104D600038BD00BF580B0020EC7E00003E7F0000E5
:104D7000567C0000537F0000127F0000297F000056
:104D800038B504464FF02003EFF3118583F3128802
:104D9000BFF36F8F1D4800F0B9FF68B91C4A1D4969
:104DA0001D48812302F033F918491C4802F02FF9FD
:104DB0001748812101F086FE144800F0C5FF637B8F
:104DC0005A0716D4114800F0AFFF68B9104A1449C9
:104DD0001148AC2302F01BF90C49124802F017F9F4
:104DE0000B48AC2101F06EFE85F31188BFF36F8F85
:104DF00038BD23F0040320466373FFF727FF2946DD
:104E00000248BDE83840FFF7D3BC00BF580B002074
:104E1000EC7E00003E7F0000567C0000537F0000C7
:104E2000127F0000297F000070B504464FF0200378
:104E3000EFF3118683F31288BFF36F8F204800F0E1
:104E400065FF68B91F4A20492048812302F0DFF836
:104E50001B491F4802F0DBF81A48812101F032FE9D
:104E6000174800F071FF14F80B3C13F0280F10D115
:104E700054F8103CA4F1180513B12846FFF772FD51
:104E800014F80B3C23F0140304F80B3C2846FFF7FE
:104E9000DDFE0B4800F048FF68B90A4A0D490B488F
:104EA000AC2302F0B4F806490B4802F0B0F805480C
:104EB000AC2101F007FE86F31188BFF36F8F70BD40
:104EC000580B0020EC7E00003E7F0000567C000066
:104ED000537F0000127F0000297F000010B590F979
:104EE0000D20437B002A044606DA03F07F03437358
:104EF00001460648FFF714FD054B9868031B58420E
:104F0000BDE810405841FFF79BBD00BF480B002093
:104F1000280B002038B504460D46FFF7DFFF637B02
:104F200043F0020363731DB3174BA5609C4209D184
:104F300016491748174AB12302F069F81548B121FC
:104F400001F0C0FD2B689D4208BF0023002B38BF35
:104F500000239BB194F90E1093F90E20914208D0D2
:104F6000521A002A05DD5A68C4E9003214605C60F8
:104F700038BD6A68934201D01B68EAE76B68C4E9F0
:104F800000531C606C60F3E7E0020020F98700002A
:104F9000567C0000D78700002DE9F04104460D46FD
:104FA00016461F464FF02003EFF3118883F3128853
:104FB000BFF36F8F1F4800F0A9FE68B91E4A1F4952
:104FC0001F48812302F023F81A491E4802F01FF8F7
:104FD0001948812101F076FD164800F0B5FE204603
:104FE0002946FFF797FF134800F09EFE68B9124A62
:104FF00015491348AC2302F00AF80E49134802F091
:1050000006F80D48AC2101F05DFD88F31188BFF36F
:105010006F8F7B1C08BFB6F1FF3F08D032463B467E
:1050200004F118000A49BDE8F04100F0E5BEBDE812
:10503000F08100BF580B0020EC7E00003E7F000096
:10504000567C0000537F0000127F0000297F000083
:10505000294E000038B5114B04469868104B0D4698
:1050600018601146DDE90423FFF796FF204600F0A3
:105070005BFE68B90B4A0C490C48C32301F0C7FF1B
:105080000B48214601F0C3FF0648C32101F01AFD79
:105090002846BDE83840FCF7ABBD00BF280B002018
:1050A000540B0020EC7E0000127F0000567C0000B4
:1050B000297F0000F8B504460E464FF02003EFF3B9
:1050C000118783F31288BFF36F8F3C4800F01EFEF8
:1050D00068B93B4A3B493C48812301F098FF374976
:1050E0003A4801F094FF3648812101F0EBFC334847
:1050F00000F02AFE637BDA0676B25CD1A569002D4A
:1051000059D103F07F03637331482146FFF708FC50
:10511000637BA67363F07F0363732E4B9C4209D1BC
:105120002D4929482D4AB12301F071FF2B48B121A7
:1051300001F0C8FC2A490B4653F8200F984218BFCB
:105140000546002D1A462B464D6A38BF00236BB327
:1051500094F90E6093F90E00864223D0801B00283C
:1051600020DD5A68C4E9003214605C600120FFF75A
:1051700067FC0124114800F0D7FD68B9104A1949AD
:105180001148AC2301F043FF0C49174801F03FFFE1
:105190000B48AC2101F096FC87F31188BFF36F8FA9
:1051A0002046F8BDAB4201D01B68D0E7C4E900251A
:1051B0002C604C62DAE7A6730024DBE7580B002072
:1051C000EC7E00003E7F0000567C0000537F000014
:1051D000480B0020E0020020F9870000D78700007C
:1051E000280B0020127F0000297F000070B50446C4
:1051F000183000F0D5FE4FF02003EFF3118683F353
:105200001288BFF36F8F254800F080FD68B9244AEB
:1052100024492548812301F0FAFE2049234801F062
:10522000F6FE1F48812101F04DFC1C4800F08CFD6A
:1052300094F90D20637B002A06DA03F07F031C48F3
:1052400063732146FFF76CFB1A4D637BA86843F03C
:1052500010036373031B58425841FFF7F1FB0F48DB
:1052600000F062FD68B90E4A13490F48AC2301F003
:10527000CEFE0A49114801F0CAFE0948AC2101F0EE
:1052800021FC86F31188BFF36F8FAB68A34203D173
:10529000BDE8704002F03AB970BD00BF580B002065
:1052A000EC7E00003E7F0000567C0000537F000033
:1052B000480B0020280B0020127F0000297F0000EF
:1052C00038B54FF02003EFF3118583F31288BFF355
:1052D0006F8F2D4800F01AFD68B92C4A2C492D48D3
:1052E000812301F094FE28492B4801F090FE2748C5
:1052F000812101F0E7FB294C234800F025FDA2683D
:10530000D27B72B92649274A224840F2553301F030
:105310007EFE254801F07BFE224840F2553101F027
:10532000D1FBEFF3058373B120491E4A194840F2BF
:10533000563301F06CFE1C4801F069FE194840F23A
:10534000563101F0BFFBA268D37B01330020D37339
:10535000FFF776FB0C4800F0E7FC68B90B4A1449EC
:105360000C48AC2301F053FE0749124801F04FFEF0
:105370000648AC2101F0A6FB85F31188BFF36F8FBF
:10538000BDE8384002F0C2B8580B0020EC7E0000A7
:105390003E7F0000567C0000537F0000280B002059
:1053A00058880000D7870000A38700002A870000E4
:1053B000127F0000297F000038B504464FF020031B
:1053C000EFF3118583F31288BFF36F8F1B4800F052
:1053D0009DFC68B91A4A1B491B48812301F017FE3E
:1053E00016491A4801F013FE1548812101F06AFBA5
:1053F000124800F0A9FC204602F092F8044628B1B9
:10540000FFF7B0FA04F1180000F0CAFD0B4800F0F5
:105410008BFC68B90A4A0E490B48AC2301F0F7FD32
:1054200006490C4801F0F3FD0548AC2101F04AFBA8
:1054300085F31188BFF36F8F204638BD580B0020CD
:10544000EC7E00003E7F0000567C0000537F000091
:10545000127F0000297F0000044B002103F120028D
:10546000C3E908220846FFF73DB900BF280B00201A
:10547000F8B5EFF3058373B14149424A424840F21F
:10548000A14301F0C4FD414801F0C1FD3D4840F297
:10549000A14101F017FB4FF02003EFF3118683F3D6
:1054A0001288BFF36F8F3A4800F030FC68B9394A70
:1054B00039493548812301F0AAFD3549374801F0C3
:1054C000A6FD3448812101F0FDFA354D304800F049
:1054D0003BFCA9684B7B03F07F034B7305F1200075
:1054E000FFF71EFAAC68637B63F07F0363732D4B99
:1054F0009C4209D12C492448224AB12301F087FD5E
:105500002048B12101F0DEFA2B6A2848696A8342FB
:1055100008BF0023002B38BF00235BB394F90E7043
:1055200093F90E20974221D0D21B002A1EDD5A6823
:10553000C4E9003214605C600120FFF781FA14486E
:1055400000F0F2FB68B9134A19490F48C32301F070
:105550005EFD0F49174801F05AFD0E48C32101F0C6
:10556000B1FA3046BDE8F840FCF742BB8B4201D0AF
:105570001B68D2E7C4E900010C606C62DCE700BF85
:105580002A870000D7870000567C0000A387000010
:10559000580B0020EC7E00003E7F0000537F00008F
:1055A000280B0020E0020020F9870000480B0020B3
:1055B000127F0000297F00002DE9F04104460D46CE
:1055C000EFF3058373B14549454A464840F2BE436F
:1055D00001F01DFD444801F01AFD414840F2BE4172
:1055E00001F070FA54EA050304D1FFF741FF0020EF
:1055F000BDE8F0816FF001031E1B4FF0FF3363EB3A
:105600000507012E77F1000364DA01F0A9FF0619FE
:105610004FF02003EFF3118883F31288BFF36F8FED
:10562000324800F073FB68B9314A32492D48812372
:1056300001F0EDFC2D49304801F0E9FC2C488121B6
:1056400001F040FA2D4F294800F07EFB2C4BB86842
:105650001860FFF743FCB8682A4922462B461830E9
:1056600000F0CAFBBA682148537B43F01003537320
:1056700000F05AFB68B91E4A23491A48C32301F0B7
:10568000C6FC1A49214801F0C2FC1948C32101F0A7
:1056900019FA4046FCF7ACFABB685B7BDB060ED51B
:1056A0001B490F4A0F4840F2DF4301F0B0FC0E489F
:1056B00001F0ADFC0A4840F2DF4101F003FA01F0CD
:1056C0004FFF301A66EB0601012871F10003B8BFE5
:1056D00000208DE76FF00106361B99E72A8700004E
:1056E000D7870000567C0000A3870000580B0020DD
:1056F000EC7E00003E7F0000537F0000280B00205E
:10570000540B0020294E0000127F0000297F00006A
:105710008988000038B504460D46EFF3058373B160
:105720001349144A144840F2EE4301F070FC134848
:1057300001F06DFC0F4840F2EE4101F0C3F96B1C23
:1057400008BFB4F1FF3F06D10D4B9868FFF74EFD3F
:105750004FF0FF3038BD20462946FFF72DFF4FF4AC
:105760007A7380FB0334D80B40EA4440F2E700BF71
:105770002A870000D7870000567C0000A38700001E
:10578000280B0020014B9868704700BF280B0020B1
:105790002DE9F04104464FF02003EFF3118683F327
:1057A0001288BFF36F8F484800F0B0FA68B9474AD3
:1057B00047494848812301F02AFC4349464801F003
:1057C00026FC4248812101F07DF93F4800F0BCFAF7
:1057D000637B1A0717D53C4800F0A6FA68B93B4A24
:1057E0003E493C48AC2301F012FC37493C4801F0EB
:1057F0000EFC3648AC2101F065F986F31188BFF341
:105800006F8FBDE8F08123F0200242F00801D20939
:1058100042D16173A36813B12046FFF7A3F804F1E6
:10582000180000F0BDFB04F158074FF00008A56D0B
:10583000BD4201D0002D39D10120FFF701F9294BDC
:105840009B68A342C7D1EFF30583002BC3D11E4849
:1058500000F06AFA68B91D4A20491E48C32301F0C6
:10586000D6FB19491E4801F0D2FB1848C32101F0AC
:1058700029F93046FCF7BCF91B4A1C49154840F28F
:10588000096301F0C4FB1A4801F0C1FB164840F25D
:10589000096101F017F99EE703F05F0343F0080385
:1058A000144863732146FFF73BF8B3E72846FFF738
:1058B00059F805F1180000F073FBC5F87880284608
:1058C000FFF7C4F9B3E700BF580B0020EC7E0000DF
:1058D0003E7F0000567C0000537F0000127F0000D6
:1058E000297F0000280B0020D7870000498B00008B
:1058F000C9880000480B002038B504464FF020034B
:10590000EFF3118583F31288BFF36F8F144800F013
:10591000FDF968B9134A14491448812301F077FB53
:105920000F49134801F073FB0E48812101F0CAF8BA
:105930000B4800F009FA2046FFF73EFD48B100226F
:105940008267FFF7D5F929460548BDE83840FEF7DC
:105950002FBFD4E902329A4218BF0133A360F2E7A5
:10596000640B0020EC7E00003E7F0000567C0000AF
:10597000537F0000F7B5044616461F46EFF3058334
:105980007BB156EA07030CD03549364A36487923AD
:1059900001F03DFB354801F03AFB3248792101F036
:1059A00091F84FF02003EFF3118583F31288BFF3D2
:1059B0006F8F2F4800F0AAF968B92E4A2E492A485D
:1059C000812301F024FB2A492C4801F020FB2948BF
:1059D000812101F077F8264800F0B6F9A368D3B129
:1059E000013B2348A36000F09FF968B9214A24498C
:1059F0001D48AC2301F00BFB1D49224801F007FBB9
:105A00001C48AC2101F05EF885F31188BFF36F8F5D
:105A1000002003B0F0BD56EA070318D1144800F087
:105A200083F968B9134A16490F48AC2301F0EFFA1D
:105A30000F49144801F0EBFA0E48AC2101F042F88E
:105A400085F31188BFF36F8F6FF00F00E1E7CDE9A9
:105A50000067224629460648FFF7FCFAD9E700BF4F
:105A60000B890000EB880000567C0000A387000033
:105A7000640B0020EC7E00003E7F0000537F00009E
:105A8000127F0000297F00002DE9F04385B0044615
:105A9000DDF83C80B8F10F0F0F461546994632D11C
:105AA000254B994533D104F15803C4E91633109BB3
:105AB000237307350423637325F0070507F12003DB
:105AC000C4E919350E9B84F80E80029305F1200875
:105AD0000D9B019300260C9B0093B8444B46C4E9F0
