:10000000A02100203D1B0000316C0000291B0000D6
:10001000291B0000291B0000291B00000000000014
:100020000000000000000000000000004519000072
:10003000291B000000000000F1180000291B00002F
:10004000A9180000A9180000A9180000A9180000AC
:10005000A9180000A9180000A9180000A91800009C
:10006000A9180000A9180000A9180000A91800008C
:10007000A9180000A9180000A9180000A91800007C
:10008000A9180000A9180000A9180000A91800006C
:10009000A9180000A9180000A9180000A91800005C
:1000A000A9180000A9180000A9180000A91800004C
:1000B000A9180000A9180000A9180000A91800003C
:1000C000A9180000A9180000A9180000A91800002C
:1000D000A9180000A9180000A9180000A91800001C
:1000E000A9180000A9180000A9180000A91800000C
:1000F000A9180000A9180000A9180000A9180000FC
:1001000053B94AB9002908BF00281CBF4FF0FF317E
:100110004FF0FF3000F06CB9ADF1080C6DE904CE82
:1001200000F006F8DDF804E0DDE9022304B07047D2
:100130002DE9F047089E0D4604468E46002B40F000
:1001400082808A42174646D9B2FA82F24AB1C2F197
:10015000200105FA02F320FA01F1974041EA030E6B
:1001600094404FEA1748230CBEFBF8FCB9B208FBD9
:100170001CEE43EA0E430CFB01F098420AD9FB182F
:100180000CF1FF3580F01681984240F21381ACF1FA
:10019000020C3B441B1AA4B2B3FBF8F008FB10336B
:1001A00044EA034400FB01F1A14209D93C1900F1E2
:1001B000FF3380F00181A14240F2FE8002383C44CE
:1001C000641A40EA0C4000211EB1D4400023C6E965
:1001D0000043BDE8F08702B9FFDEB2FA82F2002ADE
:1001E0004FD1CB1B4FEA174E1FFA87F80121B3FB03
:1001F000FEFC250C0EFB1C3345EA034508FB0CF303
:10020000AB4207D97D190CF1FF3002D2AB4200F2AC
:10021000E7808446ED1AA3B2B5FBFEF00EFB105545
:1002200043EA054408FB00F8A04507D93C1900F152
:10023000FF3302D2A04500F2D7801846A4EB080491
:1002400040EA0C40C0E78B4208D9002E00F0AF8096
:100250000021C6E900050846BDE8F087B3FA83F13E
:1002600000294BD1AB4202D3824200F2B780841AFC
:1002700065EB030301209E46002EAAD0C6E9004E7E
:10028000A7E7C2F1200C01FA02F3974020FA0CF024
:100290004FEA174E21FA0CFC1843BCFBFEF1050C8B
:1002A0000EFB11CC1FFA87F845EA0C4501FB08F359
:1002B000AB4204FA02F409D97D1901F1FF3C80F048
:1002C0008B80AB4240F2888002393D44EB1A85B204
:1002D000B3FBFEF00EFB103345EA034500FB08F3C9
:1002E000AB4207D97D1900F1FF3C71D2AB426FD907
:1002F00002383D44EB1A40EA014178E7C1F1200C95
:100300008B4022FA0CF71F4320FA0CF405FA01F394
:100310004FEA174E25FA0CF51C43230CB5FBFEF9EA
:100320001FFA87F80EFB195543EA054509FB08FA41
:10033000AA4502FA01F200FA01F308D97D1909F180
:10034000FF3047D2AA4545D9A9F102093D44A5EBA2
:100350000A05A4B2B5FBFEF00EFB105544EA0544B5
:1003600000FB08F8A04507D93C1900F1FF352DD254
:10037000A0452BD902383C4440EA0940A4EB0804CC
:10038000A0FB02894C45C6464D4619D316D05EB136
:10039000B3EB0E0264EB050404FA0CFCCA404CEA11
:1003A0000202CC40C6E900240021BDE8F0873146B6
:1003B00030460EE7AC46EDE6184601E74345E6D287
:1003C000B8EB020E69EB07050138E0E72846D3E7F2
:1003D00060468FE78146BAE7614677E708464BE714
:1003E000ACF1020C3D4415E702383C4426E700BF5F
:1003F000704700BF2DE9F8431F48DFF888801F4F82
:10040000DFF8849006F0EEFB06F00AFB10F57A7434
:1004100041F10005002606F003FB013602460B46BB
:100420004046314606F0DEFB396848460131396006
:1004300006F0D8FB124805F097FB06F0F1FA0B46E0
:10044000A04273EB05010246E5DAA4EB020C2CEAAC
:10045000EC7C4FF4004E40F2E73000214FF47A720A
:100460000023CEFB0C01FFF74BFE05F08BFA14F5D1
:100470007A7445F10005CEE75C75000000000020AD
:100480005004002076750000AD750000F8B51348E3
:10049000134F144E144D06F0A5FB00244FF0FF320D
:1004A0004FF0FF33384605F09DFB06F0B9FA0134F2
:1004B00002460B463046214606F094FB29680B485D
:1004C00006F090FB0A4B0B4819680131196006F0E1
:1004D00089FB094805F048FBE0E700BFCC75000048
:1004E0005004002006760000000000203B7600004B
:1004F000040000205576000060040020F8B50E4886
:100500000E4F0F4E0F4D06F06DFB00244FF0FF32E3
:100510004FF0FF33384605F065FB06F081FA0134F1
:1005200002460B463046214606F05CFB2968064829
:1005300006F058FBEAE700BF747600006004002074
:10054000AE76000004000020E47600002DE9F041C2
:100550008AB0414803F014FE044608B90368FFDE80
:1005600001683E4806F03EFBA36808AA5B680E21BE
:1005700020469847054640B16FF0040438482146AC
:1005800006F030FB0AB0BDE8F081089E099A4FF4EE
:100590007A73A6FB036703FB02773046314A0023D8
:1005A0003946FFF7ADFD30490246B9424FF0FF3002
:1005B00008BFB04202D26FF08504DFE7A368009560
:1005C0001D68204613460E21A84704460028D5D1B1
:1005D000264801F0ABFD01222146254806F079FDB1
:1005E00001222146234806F074FD0026002701253C
:1005F000CDE90667CDE90245CDE900441E4B1F4910
:1006000004944FF480621E4805F0DAFB1D4B18601D
:100610001D4B1E490094CDE90667CDE90354CDE991
:1006200001444FF480621A48DFF8748005F0C8FB7B
:10063000C8F80000174B184918480094CDE9066720
:10064000CDE90354CDE901444FF4806205F0B8FBD5
:10065000C8F8000096E700BFFE76000004770000AF
:100660001C77000040420F003F420F00417700001E
:100670005004002060040020F50300004011002019
:10068000A8010020700400208D04000060150020E7
:1006900028020020FD04000080190020A80200208C
:1006A000740400202DE9F04F91B08B4602909246E1
:1006B0001C4600259AF8000008B928465EE3252864
:1006C0000AF1010707D0029B594698470028C0F25B
:1006D0005583013510E2182200210AA806F0E5FA38
:1006E0009AF80130252B78D000229446164696467B
:1006F0001046394617F8013B2B2B00F09D8000F285
:100700009480202B00F09B80232B00F09A8028B14E
:100710009DF8300040F004008DF83000BEF1000F6D
:1007200005D09DF8300040F008008DF830002EB163
:100730009DF8300040F010008DF83000BCF1000F43
:1007400005D09DF8300040F020008DF830002AB12F
:100750009DF8302042F040028DF830209DF8302086
:1007600002F04400442803D16FF386128DF8302044
:100770009DF830202A2B42F080028DF830207BD16A
:100780009DF8312042F001024B1C8DF831201A787F
:100790002E2A9DF831200CBF0121002161F3410276
:1007A0008DF8312074D15A782A2A6AD00133002179
:1007B0000A26184610F8012BA2F13007092F40F243
:1007C0008E809DF830200E91C2F3400040EAD17136
:1007D00061F341028DF830205AE00AF102078DF8EA
:1007E00033309DF83130D90740F1498154F8049BEA
:1007F000B9F1000F07DA9DF8302042F004028DF8BD
:100800003020C9F100095A0740F1428154F8048BA5
:10081000B8F1000F80F241819DF831306FF3410350
:100820008DF831304FF0FF3837E12D2B0CD0302BC5
:100830007FF46DAF01225CE74FF0010E59E701260E
:1008400057E74FF0010C54E7012052E70CFB02027E
:10085000303A33461E4616F8010BA0F13007092F37
:10086000F4D9994293D09DF830100D92D20F62F3D3
:1008700041018DF830108AE70B4600224FF00A0C38
:10088000E8E79DF8312042F004028DF83120023370
:100890001F4617F8012B6C2A41D025D8682A2BD087
:1008A0006A2A46D04C2A4CD01F4617F8012B9DF8D7
:1008B00031308DF83320782A00F2D980572A4DD86C
:1008C000412A03D0453A022A00F2D1809DF8323005
:1008D000042262F302038DF8323001239EE006FB0E
:1008E00001213039034664E7742A26D07A2ADBD105
:1008F0009DF8313006220DE05A78682A9DF83120A3
:1009000006D1012161F3C6028DF831209F1CCCE78E
:100910001346022262F3C6038DF83130C5E75A78D8
:100920006C2A9DF8312001D10421EBE71346032204
:10093000F0E79DF831300522ECE79DF831300722D1
:10094000E8E7BDF8303023F4F04323F0020343F42A
:10095000804343F00203ADF83030A6E7A2F158011E
:10096000202900F2848001A050F821F0310A000013
:100970006F0A00006F0A00006F0A00006F0A000093
:100980006F0A00006F0A00006F0A00006F0A000083
:10099000CD0800006F0A0000310A0000F1090000D4
:1009A000CD080000CD080000CD0800006F0A00004F
:1009B000F10900006F0A00006F0A00006F0A0000D2
:1009C0006F0A0000390A0000310A0000550A0000D1
:1009D0006F0A00006F0A0000550A00006F0A00004D
:1009E000310A00006F0A00006F0A0000310A00009F
:1009F0009DF83210012003F0780360F30201402BD0
:100A00008DF8321002BF9DF8301041F001018DF8D1
:100A10003010632A31D1003B18BF01239DF83020EC
:100A2000C2F340010B4363F341028DF83020D8E656
:100A30009DF832100220DEE79DF8322003F07803A3
:100A4000A3F14000032161F3020243428DF83220FA
:100A50004341E3E79DF83220032113F0780F61F35F
:100A600002028DF8322014BF01230023D6E79DF83F
:100A7000303043F001038DF830300023CEE79DF98C
:100A80003020002AB4BFDDF834904FF0FF39BAE6C9
:100A90009B077FF5C7AEDDF838809DF83120002335
:100AA000CDE90D339DF8323003F00703012BC2F37B
:100AB000C30236D1D31E042B20D8DFE803F003078E
:100AC000071F1F0054F8040BC11704E0073424F07B
:100AD0000704F4E80201CDE90A019DF8303013F073
:100AE000030654D002983B465246594605F0F8FF9B
:100AF0000028C0F243810544BA46DBE554F8040BF4
:100B0000012A4FEAE071CDE90A0105D19DF82830AC
:100B10000A9300230B93E0E7022ADED1BDF92800F7
:100B2000D2E7022B23D1D31E042B13D8DFE803F026
:100B3000030A0A12120020680A900021231D0B915B
:100B40001C46CAE7073424F00703F3E80201CDE9A5
:100B50000A01F5E754F8043B0A93012A4FF0000319
:100B60000B93D3D0022AB8D1BDF82830D0E7042B9C
:100B700007D1073424F00704F4E80201CDE90A01A3
:100B8000ABE7032B04BF54F8043B0A93A5E79DF899
:100B900033007828B0D8622822D825283FF493ADB6
:100BA0005828A9D10DF126030093DDE90A0104AB11
:100BB0000CAA05F04AFF8246B8F1000F0DF126009D
:100BC0000CDB9DF83020A0EB0A036FF386129845EA
:100BD0008DF8302002D9A8EB03030D9380463DE049
:100BE0006338152888D801A151F820F06D0C000059
:100BF000D10C0000F90A0000F90A0000F90A00000F
:100C0000F90A0000D10C0000F90A0000F90A0000FE
:100C1000F90A0000F90A00002F0D0000FD0C000089
:100C2000010D0000F90A0000F90A0000450C00005F
:100C3000F90A0000FD0C0000F90A0000F90A0000A2
:100C4000FD0C0000B8F1000FDDF828A00ADB4146DA
:100C5000504606F00AF80AEB00080026BAF1000F29
:100C60000CD149E7504605F0F9FFF4E70A9B8DF8EF
:100C7000103000260DF111080DF1100AA8EB0A033F
:100C800006B101339DF83220D0066BD502335206EF
:100C90000D9948BF0E9A0B4448BF9B18B9F1000F3D
:100CA00079DD9DF83020A9EB0309C2F3800303939B
:100CB000530770D4500664D546B1029B594630465E
:100CC000984700285ADB039B01351E46302359E024
:100CD0001E0711D413F0100618BF2026DDE90A23E1
:100CE000002A73F10001BFF65DAF524263EB43038C
:100CF000CDE90A232D2655E72B26EFE7002651E7FD
:100D00000A9848B30DF1260300930CAA04AB002106
:100D100005F09BFEBDF8323003F0EF0343F4F043DF
:100D200043F010038246ADF83230002644E70A9BB8
:100D3000072A3FF6E1AEDFE802F00D04060D0808D1
:100D40000D0D1D70D8E61D80D6E62846E917C3E9CB
:100D50000001D1E61D60CFE6DFF8C4800646A8F1A9
:100D6000050A8BE7110748BF013390E71846039344
:100D70005946029B98470028039B04DA11B0BDE84E
:100D8000F08F20234D444A46002AA5EB090109F1C2
:100D9000FF39EBDC0D4636B1029B59463046984789
:100DA0000028EBDB01359DF83230D90601D41A0753
:100DB00006D5029B5946302098470028DEDB0135D6
:100DC0009DF83230DB0607D59DF83300029B59466B
:100DD00098470028D2DB01350D9E2E44731B002B53
:100DE00016DC029843465246594605F079FE002823
:100DF000C4DB0544A944A9EB0503002B7FF77CAEB7
:100E0000029B5946202098470028B7DB0135F2E7BE
:100E1000029B5946302098470028AFDB0135DDE7BB
:100E20007977000038B54468816004F00304032C2E
:100E3000054602D02CB1002000E0006800236B6062
:100E400038BD054A05490648452305F0CBFE024852
:100E5000452105F0F3FDEEE77A7700009878000071
:100E60009D770000014805F049BC00BF9873000061
:100E700008B5D0B14368042B11D100220368BFF339
:100E80005B8F53E8001F012903D143E800200028AD
:100E9000F7D1BFF35B8F074808BF104608BD3BB1D1
:100EA000006803F0C5FC0020F8E76FF4E040F5E7C8
:100EB0000148F3E7E98FFFFFEA8FFFFF10B5044613
:100EC00018B90D4B0D485B689847616808290DD02B
:100ED00031F004030AD011F0020108D0084821467D
:100EE00003F042FB002323600023636010BD2068F1
:100EF000142205F0DAFEF7E7E4000020BA770000DC
:100F00007804002010B5044618B9164B16485B68E3
:100F100098476368042B23D0082B21D0CBB92368D2
:100F2000BBB912484FF0FF324FF0FF33214603F0B8
:100F3000AFFA08B923681BB90A4B0D485B6898479C
:100F400020681422002105F0B0FE636843F002031C
:100F50006360206806F096F8636843F001036360FD
:100F600010BD00BFE4000020BA7700007804002024
:100F7000E077000008B508B34368042B10D10122C4
:100F80000368BFF35B8F53E8001F002903D143E8D8
:100F900000200028F7D1BFF35B8F0BD1002008BDE4
:100FA00053B100684FF0FF324FF0FF3303F040FBC6
:100FB0000028F3D00348F2E70348F0E76FF4E0407D
:100FC000EDE700BFE98FFFFFEA8FFFFF08B5064995
:100FD00006484023142206F039F8BDE808400449C9
:100FE000044805F0EDBB00BF980400207804002001
:100FF000B0730000A07300002DE9F04FB0F81C9012
:1010000085B019F0080F0446039222D001290CBFC5
:1010100049F0100949F02009A0F81C90143420462A
:1010200004F0BAFF68B99F4A9F49A048AC2305F075
:10103000D9FD9F48214605F0D5FD9A48AC2105F021
:10104000FDFC039B83F31188BFF36F8F05B0BDE8F0
:10105000F08F984FDFF8548209F00709022906D172
:10106000204605F069FD0028D8D0012868D1D4F8C1
:1010700018B0A38BBBF1000F0ADA0026256823F015
:101080000703C4E9006643F00103A383019627E048
:1010900003F00702511F012934D8002123F0070370
:1010A000062A25689BB2C4E900110CD18D422A465C
:1010B00038BF0A462AB1E18B12680131E183002A68
:1010C000F8D143F00203A383204605F035FD064620
:1010D0000028DBD0A38B43F02003A38300230193DC
:1010E000A38B03F007024A45029203D0A268002AAC
:1010F00040F0F0801DB9019A002A00F036814FF0CF
:101100000009E9E0042A0ED123F007039AB2A28372
:10111000204605F011FD054618B142F02002A283D9
:1011200000250195DCE74046634940F21B133A462F
:1011300005F058FD40F21B11384605F07FFCEFE743
:10114000032835D1B9F1000F0BD05C4940464FF46C
:10115000AB733A4605F046FD4FF4AB71384605F0E7
:101160006DFC23685BB95649404640F257133A4636
:1011700005F038FD40F25711384605F05FFC236951
:101180001B6801935BB94F4940464FF4AD733A4633
:1011900005F028FD4FF4AD71384605F04FFCA38BE8
:1011A00023F0070343F00603A3830025AB4697E72C
:1011B000042832D1B9F1020F0BD04349404640F226
:1011C0005D133A4605F00EFD40F25D11384605F01C
:1011D00035FCE38B5BB13D4940464FF4AF733A4673
:1011E00005F000FD4FF4AF71384605F027FC236988
:1011F0005B6801935BB93349404640F261133A465C
:1012000005F0F0FC40F26111384605F017FCA38BA5
:1012100023F0070343F00403C6E7052832D1B9F1F0
:10122000010F0BD02A4940464FF4B2733A4605F0FD
:10123000D9FC4FF4B271384605F000FC23685BB965
:101240001F49404640F265133A4605F0CBFC40F298
:101250006511384605F0F2FB23699B6801935BB981
:10126000184940464FF4B4733A4605F0BBFC4FF4BE
:10127000B471384605F0E2FBA38B23F0070343F07B
:10128000050391E70C4940F26B133A46404605F0DE
:10129000A9FC002540F26B11384605F0CFFB019503
:1012A00084E700BFB0780000D67800009D7700008A
:1012B000ED7800000D780000987800002F7800008D
:1012C0003B7800005E780000757800008B780000A5
:1012D0009A7800004FF0010943F0080304F1140A62
:1012E000A383504604F058FE68B93A4A3A49AC2301
:1012F000404605F077FC3948514605F073FC354807
:10130000AC2105F09BFB039B83F31188BFF36F8F28
:10131000B9F1000F38D1002D4BD1019B13B13049E9
:10132000204698474FF02003EFF3118B83F3128888
:10133000BFF36F8F5046CDF80CB004F01FFE68B9B4
:10134000244A28498123404605F04CFC2648514652
:1013500005F048FC1F48812105F070FB504604F061
:101360002BFEA38B23F00803A383A38BDA0628D5D7
:1013700023F01003A3830121B4F81C9009F007099E
:1013800000297FF46BAE49E6A1680029C3D00B6841
:10139000029A002B38BF002399464B6820461E4610
:1013A0005B46B047B9F1000FB5D0D9F800304946D7
:1013B000EEE72946029A2D685B46204605F0D8FBE9
:1013C000A9E713F020011EBF23F02003A38302210D
:1013D000D2E700BFB0780000D6780000ED780000BA
:1013E000ED1300000279000017790000F8B50446FB
:1013F0000D4600F114064FF02003EFF3118783F33D
:101400001288BFF36F8F304604F0B8FD68B90C4AFC
:101410000C490D48812305F0E5FB0C48314605F0E9
:10142000E1FB0748812105F009FB304604F0C4FDCB
:10143000A5613A4620460121BDE8F840FFF7DCBD32
:10144000B0780000027900009D7700001779000055
:101450002DE9F04704460F4605F0A0FB051E5EDBB4
:1014600004F114094FF02003EFF3118A83F312887B
:10147000BFF36F8F484604F081FD68B9384A394997
:101480003948812305F0AEFB3848494605F0AAFBF0
:101490003348812105F0D2FA484604F08DFDE38BF4
:1014A000A28B4FF6FF718B4202F0070650D0022E3E
:1014B00024D10133E38335464FF00108484604F058
:1014C0006BFD68B9264A2A492748AC2305F08AFBF8
:1014D0002848494605F086FB2148AC2105F0AEFAC4
:1014E0008AF31188BFF36F8FB8F1000F17D0002374
:1014F00032463946204605F03BFB10E0930701D009
:10150000062E0FD100233B606368F3B9C4E900776E
:101510003546FEB9524602212046FFF76DFD2846AA
:10152000BDE8F087052E18D0012E0BD012490E48C9
:10153000124A40F2C91305F055FB104840F2C91198
:1015400005F07CFA6FF0040504E01F606760DFE7D8
:101550006FF00A054FF00008B0E76FF08505F9E776
:10156000B0780000027900009D7700001779000034
:10157000D6780000ED7800009A7800000D78000021
:101580002DE9F84305464FF02003EFF3118683F36E
:101590001288BFF36F8F234804F0F0FC68B9224A29
:1015A00022492348812305F01DFB1E49214805F0EF
:1015B00019FB1D48812105F041FA1A4804F0FCFC92
:1015C0001D4B1C68002C38BF00249CB11B4FDFF85A
:1015D00078804FF00C09D4E90132002D08BF134682
:1015E0002BB198F8142009FB02F2B85C98472468E4
:1015F000002CF0D10B4804F0CFFC68B90A4A10491E
:101600000B48AC2305F0EEFA06490E4805F0EAFA5D
:101610000548AC2105F012FA86F31188BFF36F8FED
:10162000BDE8F88398090020B07800000279000036
:101630009D770000177900009C090020A809002070
:10164000D6780000ED7800000C0B002000F01F039E
:1016500001229A400A4BBFF35B8F400903EB8000E5
:1016600050E8003F43EA020140E8001CBCF1000FD3
:10167000F6D1BFF35B8F1A4214BF012000207047E0
:10168000B409002030B51D4B1D7DBFF35B8F05F005
:101690001F0301229A401A4B690985B0D04303EB1E
:1016A000810353E8001F01EA000443E8004CBCF149
:1016B000000FF6D1BFF35B8F114217D0114C0C22F3
:1016C00002FB054207CA01AB83E807000E4A7AB164
:1016D00093E8070005F005FB0020FFF751FF0C23FE
:1016E0006B430022E118E250C1E9012205B030BD90
:1016F00082F31188BFF36F8FEEE700BF0C0B002061
:10170000A4090020A8090020E36C00002DE9F041A5
:10171000374BDFF8F4801C7D88B007462046FFF782
:1017200095FF60B96E463A462146304605F067FAA5
:1017300096E807000C2505FB048585E807000C23C7
:10174000634308EB030218F80300650904F01F0661
:10175000C8B37B1C0FD0D2F808E02648264A4FF4C5
:10176000004C00210023ECFB0E01FEF7C9FC012117
:10177000381A04F0E3FD03F0E3F90120FFF700FF5E
:10178000BFF35B8F1D4B0122B24003EB850353E88F
:10179000001F114343E800100028F8D1BFF35B8F0E
:1017A0000C2303FB048494E8070005AB83E80700DF
:1017B000134A1AB193E8070005F080FAFFF762FFB9
:1017C00003F0B6FE01200F4ABFF35B8F0123B34045
:1017D000DB4302EB850555E8002F1A4045E8002160
:1017E0000029F8D1BFF35B8F08B0BDE8F08100BFDE
:1017F0000C0B00203F420F0040420F00A4090020C4
:10180000BD6C0000B4090020A80900200B6801335A
:101810000B60014B1B68184728000020014B186023
:10182000704700BF2800002007B50B460021024684
:101830000191034801A9FEF735FF03B05DF804FBF1
:101840000D18000008B54FF02002EFF3118382F36A
:101850001288BFF36F8F00F0BFFC034805F0C2F998
:1018600000F00AF8FCE700BF2F79000001491022C0
:101870000A60704710ED00E072B6404080F31188B6
:10188000BFF36F8FBFF34F8F30BF62B6BFF36F8F61
:10189000704700BF72B6494081F3118820BF80F3C2
:1018A000118862B6704700BF01B572B60B4A9069E5
:1018B00000281EBF0021916105F0C1FB62B6EFF365
:1018C0000580A0F110004FEAC0000549014409C994
:1018D0009847BDE801400349084700000C0B002071
:1018E000F07100000D1B000030BFFFF7FDBF00BF0F
:1018F00012498A684FF030001044EFF3098C80E8F9
:10190000F01F202080F31288BFF36F8F0C4F4FF031
:101910000066CA698A603E60506F0023536780F397
:10192000118804B5104600F0E7FABDE8044002F162
:10193000300090E8F01F8CF3098870470C0B0020F2
:1019400004ED00E01EF0040F0CBFEFF30880EFF38E
:101950000980816911F8021C0229FFD001B505F048
:101960005FF901BD43B2002B08DB012200F01F002C
:1019700002FA00F05B09024A42F82300704700BFF8
:1019800000E100E0054B420900F01F0053F822205F
:10199000012303FA00F01040704700BF00E100E0AF
:1019A00070B54C1C072C05460E460FD9114A12493A
:1019B0001248592305F016F91148314607232A46E3
:1019C00005F010F90B48592105F038F86BB2002BDF
:1019D000ACBF03F160430B4B4FEA4414B8BF05F0B2
:1019E0000F05E4B2AABF03F561435C5583F80043D9
:1019F00070BD00BF587900008E7900009D7700000F
:101A0000A979000014ED00E00B4A08B50B4B22F059
:101A10007F029A60BFF34F8FBFF36F8FD3F8882098
:101A200022F47002C3F8882002F07AFC04F0F2FD80
:101A300000F0F6F902F07EFC0000000000ED00E08E
:101A4000094A0A49936809689967094958674B68C0
:101A500043F080534B60002383F31188BFF36F8FF3
:101A60009368986F704700BF0C0B0020D074000083
:101A700000ED00E042F8203C009B42F81C3C0A4983
:101A8000019B42F8183C029B42F8143C21F00101F2
:101A90004FF0807342F8043C42F8081C0023203ABF
:101AA00002654367704700BF096C00000B4A03469C
:101AB000906890B113F1160F406E05D0A0F120028E
:101AC0009A4206D8834204D281422CBF00210121D0
:101AD00000E00021002908BF002070470C0B002007
:101AE00008B5094B98600D46144600F005FA2046EB
:101AF00085F30988002163B681F31188BFF36F8FE6
:101B00000022002305F080F80C0B0020044B99689C
:101B1000D869884203D003494FF080520A60704769
:101B20000C0B002004ED00E0EFF30880EFF30981D7
:101B300001B5724600F0AEF801BD00BF002080F391
:101B40001488BFF36F8F05F0E1FA00200D4908609B
:101B5000BFF34F8F0C4880F3088800F07DF92020F8
:101B600080F3118809484FF40261401880F3098816
:101B7000EFF314800221084380F31488BFF36F8FC2
:101B8000FFF742FF94ED00E0A02100202023002079
:101B9000234B70B515469A6A9A6A9A6A044690076A
:101BA0001AD5586B9A6A120616D519B19A6A22F09C
:101BB00080029A629A6A9A6A9A6AD6060FD49B6AD7
:101BC00099070CD40024164A936A43F0FF039362EA
:101BD00000232B70204670BD6FF01500EAE7104E11
:101BE00073681A05EED52146FFF760FF044618B169
:101BF00080F309880224E6E7B36ADB06E2D5094AE6
:101C000009490A4840F2491304F0ECFF084804F07F
:101C1000E9FF044840F2491104F010FFD3E700BF88
:101C200000ED00E0E9790000237A00009D770000D4
:101C30006D7A00000D4B9A6A9A6A9A6A920508D5E5
:101C40009A6B9A6A120404D518B19A6A22F4004277
:101C50009A62064B9A6A9A6AD20558BF9A6A9A6A39
:101C6000002042F47F429A620870704700ED00E065
:101C7000074B9A6A9A6A9A6A9A6A9A6A9A6A9A6AF6
:101C80006FEA02426FEA12429A620020704700BF78
:101C900000ED00E070B5544B5C688AB00D46C4F3AB
:101CA0000804002686F31188BFF36F8F02F07F438C
:101CB000B3F17F4F08D102F00C03082B04D01207B8
:101CC0005CBF054601267DB9484A4949494840F26A
:101CD000F23304F087FF484804F084FF434840F2A1
:101CE000F23104F0ABFE002500238DF80730E31E2F
:101CF000032B72D8DFE803F002696D493A4BDC6AC6
:101D000014F0020469D1DA6A002A18DBDB6A5B008E
:101D10004ED5AB6933F8022C4DF602739A420DD0C2
:101D200003F1604303F626631B780BB30DF1070242
:101D300001212846FFF72CFF044600E02C689DF89F
:101D400007309BB92022294602A804F0A3FF099B73
:101D5000002E44D0C3F3080222B96FEA53236FEA7E
:101D60004323099302A9204604F058FF0AB070BD2E
:101D7000224B1B782BB10DF107010120FFF75AFF11
:101D8000DAE71F4B1B889BB213B1FFF771FFD3E754
:101D90001C49164A174840F2C32304F023FF1A488F
:101DA00004F020FF40F2C321104804F047FEC6E7CC
:101DB00014490E4A0F4840F2C72304F013FF13489A
:101DC00004F010FF40F2C721EEE70DF107020021F9
:101DD000AFE70DF107010020D0E70024AFE723F4BF
:101DE000FF7323F00103BCE700ED00E0E979000098
:101DF000907A00009D770000A37A000029ED00E0B2
:101E00002AED00E098780000E17A0000057B0000F0
:101E1000024A536943F010035361704700ED00E03C
:101E2000044800232021C2180133302B82F800130C
:101E3000F9D1704700E100E0064A11680023C1F3C0
:101E4000072118468B4200D170479360106101331F
:101E5000F8E700BF90ED00E008B572B6002383F309
:101E60001388FFF7E9FF144B4FF0FF32C3F88020CF
:101E7000C3F88420C3F88820C3F88C20C3F89020CE
:101E8000C3F89420C3F89820C3F89C20C3F880219D
:101E9000C3F88421C3F88821C3F88C21C3F89021AA
:101EA000C3F89421C3F89821C3F89C2162B6BFF30C
:101EB0004F8FBFF36F8F08BD00E100E0064B9B68BA
:101EC000834207D1EFF3058323B1044A536843F0FB
:101ED0008053536003F094BD0C0B002000ED00E034
:101EE000024B034A0348012100F068B800000420B7
:101EF00000000020C4730000426E054B203A1A60B7
:101F0000044A2021C3E901121846012100F07EB8DD
:101F1000B809002000000B15F0B51E4F00268E42B8
:101F200001DB1046F0BD446884B353B104F1FF3CBB
:101F300014EA0C0F18D11F2C16D905681CEA050FDE
:101F400012D1202C0568D0F808C0D2B20FD9B4F154
:101F5000004F0ED8013CB4FA84F4C4F11F046400AD
:101F6000072A4CEA040406D96FF01502D9E70824C1
:101F7000F6E73E24F4E725F01F05154345F010056C
:101F800044F00104BA60FD6001323C6101360C305E
:101F9000C5E700BF90ED00E0034B05225A60BFF398
:101FA0004F8FBFF36F8F704790ED00E0BFF35F8FEF
:101FB000014B00225A60704790ED00E038B50E4D9D
:101FC00001232A780C46FFF7A7FF2870163011D19D
:101FD00040F21113094A0A490A4804F003FE214657
:101FE000094804F0FFFDBDE83840044840F21111F3
:101FF00004F024BD38BD00BF6C0B0020357B000011
:10200000987800009D7700006C7B000010B5124AA4
:10201000002312780C46FFF77FFF10F1160F08D04F
:102020000E4B0022072800DD10BD98601A610130B8
:10203000F8E70B4A0B490C484FF4987304F0D2FDB3
:1020400021460A4804F0CEFDBDE8104004484FF494
:10205000987104F0F3BC00BF6C0B002090ED00E021
:10206000357B0000987800009D770000987B000089
:10207000254910B50C68082C13D94FF4A473234AD2
:102080002349244804F0AEFD23480822214604F0E9
:10209000A9FD1E484FF4A47104F0D0FC4FF0FF30AE
:1020A00010BDFFF783FF48681C490022944200F1ED
:1020B0000C0019D11A4B1C70FFF76EFF0B68C3F3AD
:1020C0000723082B0ED01749104A12484FF4D47337
:1020D00004F088FD144804F085FD0C484FF4D471D9
:1020E00004F0ACFC0020DBE78A6050F80C3C23F0E5
:1020F0001F03134343F01003CB6050F8043C43F03C
:1021000001030B610132D1E7D0730000357B000081
:10211000987800009D770000C57B000090ED00E0FE
:102120006C0B0020F97B0000497C00000FB407B560
:1021300004AB022153F8042B04480193FEF7B2FAD2
:1021400003B05DF804EB04B0704700BF456C0000BD
:10215000014B1860704700BF2C0000200239012994
:1021600002D8034B1B6818474FF0FF30704700BF81
:102170002C0000204FF02003EFF3118183F312882D
:10218000BFF36F8F0F4A0123C2F840354FF08042F2
:10219000C2F878350C4A1268082A08D10B4A12682E
:1021A000052A04D80A48825C0AB10A4A13604FF033
:1021B00080430122C3F8802581F31188BFF36F8F1C
:1021C0000020704700E00140300100103401001091
:1021D000797C0000380600404FF08043C0B2C3F85D
:1021E0001C05BFF34F8F0549054BCA6802F4E06236
:1021F0001343CB60BFF34F8F00BFFDE700ED00E05E
:102200000400FA0520B1034B800143F00103184795
:10221000704700BF907300002DE9F041104C071B80
:10222000C7F347174FF00C0808FB07F8064608F1FC
:1022300048000D462044402104F05EFD011E09DBEC
:10224000084B4444C4E91035074B53F83730BDE818
:10225000F041184730462B46BDE8F041184700BF13
:10226000D40900205B6D00000874000038B5CCB2C2
:10227000012C054609D9094909480A4A792304F07D
:10228000B1FC0848792104F0D9FB2B690C2104FB2F
:102290000134A06C00F0070038BD00BFBC7C00001A
:1022A0009D7700007F7C0000F8B5CCB2012C076957
:1022B000054616460BD918491848194A40F24D13DD
:1022C00004F090FC164840F24D1104F0B7FB4FF0BB
:1022D0002003EFF3118283F31288BFF36F8F0C2377
:1022E00003FB0471896C11F0C00101D08E4210D142
:1022F00003FB047301219964002082F31188BFF36A
:102300006F8F28B9696801EBC4046368984700209F
:10231000F8BD4FF0FF30F0E7BC7C00009D77000077
:102320007F7C000070B50D460649411A04464911EC
:1023300005484022FFF7B8FF2B4601462046BDE87E
:1023400070401847D409002078710000002270B551
:10235000012104461046FFF723FB0020FFF702FB94
:102360000F4801F053F80F4B984215D101F072F865
:1023700026690D49304604F020FC00280BDB0125BE
:10238000B5642469084904F1200004F016FC002813
:1023900001DB6565002070BD6FF00400FBE700BF46
:1023A000E12300000000AD0B1874000001460C236F
:1023B00009484B4370B5C418D4E91056002248337D
:1023C0002264184404F0B6FC2DB132462B46034873
:1023D000BDE87040184770BDD40900207871000036
:1023E000012808B506D0032808D0A8B9104B9B6C6B
:1023F0005B071BD1BDE80840FFF7D8BF0D490E4A67
:102400000E4840F25E2304F0EDFB40F25E21BDE891
:102410000840094804F012BB0649074A074840F241
:10242000622304F0DFFB40F26221F0E708BD00BF49
:10243000D4090020987800007F7C00009D77000080
:1024400008B54FF02003EFF3118183F31288BFF337
:102450006F8F124A136843F0020013F001031060FB
:102460000CD04FF08042D2F80C34D2F80C2413F088
:10247000010303D00A4804F05DFC012381F31188B5
:10248000BFF36F8F23B1BDE808400020FFF78EBF78
:10249000BDE80840012000F0FDBF00BF2C0A00206D
:1024A0001C0A0020094BBFF35B8F53E8002F22F07A
:1024B000020143E800100028F7D1BFF35B8FD30778
:1024C00002D4012001F03AB8704700BF2C0A002066
:1024D0001FB500220123CDE90223094ACDF800D01F
:1024E0006B46CDF804D004F04AFC002805DB4FF41D
:1024F00080420023684603F075FB05B05DF804FBDD
:10250000796D00002DE9F8434949BFF35B8F05461B
:10251000012251E8003F41E800200028F9D1BFF333
:102520005B8FA3B9434944484B60CB608A60FEF798
:102530008FFF00280BDA41494148424A4FF40873A3
:1025400004F050FB3F484FF4087104F077FAADB344
:102550006B1E012B56D8012D07D14FF08043D3F8C5
:102560001C3403F00303012B28D004F0BEFD044605
:1025700018B9354B1B78002B52D14FF02003EFF3E5
:10258000118683F31288BFF36F8F01242F4FDFF87A
:10259000C480DFF8C4904FF08042D2F81834D2F8EB
:1025A0001824D2030CD503F00303012B01D0012D15
:1025B00006D10CB386F31188BFF36F8FBDE8F883A3
:1025C000ACB13046FFF766F94FF08042D2F81835CB
:1025D000002BE0D139680029DDD03B603B68012346
:1025E000C2F81835C8F88031C9F80030D3E70021A7
:1025F000212003F0C7F9E7E74FF080430222C3F838
:102600000423DBE712490E480E4A40F2322304F05D
:10261000E9FABDE8F8430B4840F2322104F00EBA63
:102620004FF080430222C3F808230646AEE700BFFE
:10263000300A0020C4090020F4090020E07C0000DA
:102640009D7700007F7C00007D0F0020040100408A
:102650009878000000E100E00800004008B5084B51
:102660000848186004F0E1FC38B10748FFF770FD36
:102670000548FFF7D3F8002008BD6FF01200FBE714
:10268000340A0020D87100008D2600000A2838B5D1
:10269000074D044604D1286883680D215B6898477C
:1026A00028688368E1B25B689847204638BD00BF60
:1026B000340A002070B5056916460C4661B92249F6
:1026C000224A2348242304F08DFA224804F08AFA8F
:1026D0001E48242104F0B2F9636863B91E491B4AFD
:1026E0001B48252304F07EFA1C4804F07BFA1748A7
:1026F000252104F0A3F96B685BB100229C4213D141
:1027000023685AB9AA686B60944200D1AB60002379
:10271000236076B9002070BD0B46EFE71360AB680D
:102720009C4208BFAA60F2E719681A460029F3D153
:102730003EB16B682360A8686C600028EAD1AC6089
:10274000E9E76FF01500E6E71C7D0000EF7C000074
:102750009D770000257D0000347D0000467D00004F
:1027600043092DE9F04703D0012B36D0BDE8F087AF
:102770001B4F3B695C68002CF8D02568DFF86C8043
:10278000DFF86C90DFF86CA000F01F000126002D30
:1027900006FA00F638BF0025A3681E4214D063680D
:1027A00063B9494645234246504604F01BFA0D489A
:1027B00004F018FA4521404604F040F9D4E901320A
:1027C0002146324038469847002DCFD02B68002B49
:1027D00038BF00232C461D46DEE7034FC9E700BF84
:1027E00090710000467D0000A8710000EF7C0000A1
:1027F0005D7D00009D7700007FB54068057B01F09E
:102800001F04B2F5005F44EA45144FF0000504D1FF
:10281000204601F02BFA002054E0B2F5804FCDE9BC
:10282000025551D1B3F5003F0CBF042305238DF8A9
:102830000830836823FA01F111F0010155D1B2F596
:10284000A03F52D166094AD04FF6FF73012E08BF50
:10285000194604F01F05E940CA070BD42B492C4840
:102860002C4A40F2292304F0BDF92A4840F22921DC
:1028700004F0E4F86EB1012E34D027492448254AEB
:1028800040F22E2304F0AEF9224840F22E2104F04B
:10289000D5F84FF0A04305F5E07553F82530DB0778
:1028A00023D40DF107052946204601F009F91B4BF9
:1028B000984219D1284601F063F9194B984213D078
:1028C0006FF00B0004B070BDB3F5C02F05D0B3F5A9
:1028D000003F0CBF02230123A9E70323A7E74FF022
:1028E000FF31B6E70F4BD6E703950023194602AA3E
:1028F000204600F0C7FF0A4B984204D10121204630
:1029000001F044F987E76FF00400DBE79C7D0000ED
:102910009D770000697D0000987800000400AD0BF1
:102920000000AD0B0003005010B501F019F904468A
:1029300068B901F0EDF8084B98420AD107482146E2
:1029400001F0B8F8224605210620FFF729F80020FB
:1029500010BD6FF00400FBE70000AD0B6127000025
:102960002DE9F04347683B7B01F01F0585B00E461B
:1029700045EA43151446CAB902A9284601F0A0F851
:102980000446284601F094F9484B984204D06FF071
:10299000040005B0BDE8F083844205D19DF808002D
:1029A00001F0E8F8A042F2D10020F2E74FF0000970
:1029B0000DF103013046CDE9029901F081F84B4653
:1029C000804602AA4946284600F05CFF374B9842F1
:1029D00002D06FF01500DCE7804503D19DF80300BD
:1029E00001F0C8F8A3054ED5314B324A234093423B
:1029F0003AD00CD8062B14D004D893B1022BE8D1CE
:102A000004230EE0B3F5801FE3D1012309E02A4A35
:102A100093422BD0B3F5A00F2AD0B3F5800FD8D1B5
:102A200002238DF8043084F48073C3F30023E0069E
:102A30008DF8053054BFC4F34013032321058DF8EE
:102A4000063017D57B68012101FA06F6C3F8086540
:102A5000002201A9284600F0BDFF144B984214BF84
:102A60006FF01500002094E70723DAE70523D8E785
:102A70000323D6E7620541BF7B68012101FA06F610
:102A8000C3F80C65E4E7E3064FF0000354BFC4F35A
:102A9000401403241A4601A928468DF8044000F08A
:102AA000F1FE024B98423FF47FAF92E70000AD0B7E
:102AB0000600F0000600100002004000F0B54B795F
:102AC000012B26D0032B21D110268B79032B1DD16E
:102AD000CC790CB1012C19D10A7912B1022A15D185
:102AE0000E220B684568B3F5164F2D6865D02DD8BA
:102AF000B3F5165F64D016D8B3F5966F62D00AD8D6
:102B0000B3F5967F61D0B3F5167F61D06FF0850085
:102B100052E00026D9E7B3F5166F5CD0B3F5965FA7
:102B2000F4D1374B3CE0B3F5E14F57D007D8B3F5BC
:102B3000615F55D0B3F5964FE8D1324B30E047F6A0
:102B40001227BB42E2D14FF4000329E0B3F5613F05
:102B500048D013D8B3F5963F47D009D84DF6C027D3
:102B6000BB4244D0B3F5614FD0D14FF46B0317E0B3
:102B7000B3F5E13FCAD14FF0EB7311E0B3F5612F2C
:102B800038D008D8204FBB4237D0B3F5E12FBDD1A4
:102B90004FF0E86304E01D4FBB42B7D14FF08053C4
:102BA000C5F82435036903C9344322430433C5F807
:102BB0006C2583E803000020F0BD4FF41D03EFE710
:102BC000134BEDE74FF49E23EAE74FF4A033E7E71A
:102BD0004FF41C33E4E74FF41D23E1E70D4BDFE72F
:102BE0000D4BDDE74FF06C73DAE70C4BD8E74FF491
:102BF0006503D5E74FF07063D2E74FF08063CFE70E
:102C000000B0130000A04E0090D0030040420F001F
:102C10000050270000C0750000F03A0000903A0113
:102C20000268530910B504462CD0012B4FF6FF73F0
:102C300018BF002302F01F02D340DB070BD4144956
:102C40001448154A40F2292303F0CCFF124840F201
:102C5000292103F0F3FE236803F01F025B092260C1
:102C60000DD0012B11D00D490A480B4A40F22E23FA
:102C700003F0B8FF084840F22E2103F0DFFE4FF0CA
:102C8000A04010BD4FF0FF33D4E70548F9E700BF7F
:102C90009C7D00009D770000697D00009878000011
:102CA00000030050F8B5066905460F4604F01DFA0A
:102CB00010B92C4B1B7883B94FF02003EFF311842C
:102CC00083F31288BFF36F8F284604F0E3F828BB24
:102CD00084F31188BFF36F8FEEE76424284604F075
:102CE000D9F870B9012004F027F9013CF6D1002190
:102CF000212002F047FEF0E784F31188BFF36F8FC5
:102D0000F5E74FF02003EFF3118483F31288BFF34C
:102D10006F8F284604F0BEF80028EDD006F8107F2B
:102D200069680B680122C3F84465C3F8482500228E
:102D3000C3F82021D3F82001C3F85821D3F8582133
:102D40004A68D20641BF0822C3F800254FF480022A
:102D5000C3F8042301229A6084F31188BFF36F8FB4
:102D6000F8BD00BF7D0F00202DE9F743D0F80480A7
:102D70000769D8F800400023C4F80035386045687A
:102D8000EB680646581C13D001A80193FFF748FFD3
:102D9000019A01239340C0F80835EB68019301A81C
:102DA000FFF73EFF019B03F5E073032240F8232069
:102DB0002B69591C11D02A7F0193002A01A814BF46
:102DC0004FF003094FF00009FFF72AFF019B03F5BD
:102DD000E0734FEA890240F823206B695A1C13D034
:102DE00001A80193FFF71CFF019A01239340C0F84B
:102DF00008356B69019301A8FFF712FF019B03F5EA
:102E0000E073032240F82320AB69581C11D06A7F7D
:102E10000193002A01A814BF4FF003094FF00009E5
:102E2000FFF7FEFE019B03F5E0734FEA890240F8CD
:102E30002320D5E903122B68C3F80C15C3F8142519
:102E4000D5E90512C3F808153169C3F81025043116
:102E50003046FFF733FE0546002846D1D8F8043047
:102E6000990719D507F1120001F020F8224B98427A
:102E70003FD1B87CC30003F1804303F5F83304F17C
:102E80000C0204F59071C3F81015C3F814251B4A01
:102E900001238340C2F804350823C4F8003598F8AC
:102EA00008305BB9C4F81031D4F8103107F11103C0
:102EB000C4F834350123C4F838352360D8F8043019
:102EC0009A075CBF4FF48072C4F80423DB0644BF4A
:102ED0004FF48003C4F8043310370023C4F844755A
:102EE000C4F848350123A360E360284603B0BDE879
:102EF000F0836FF00405F8E70000AD0B00F001402F
:102F0000194970B5044622F07F460868C1E90023DC
:102F1000A6F50013101AB3F5400F4FF000050AD2C2
:102F2000124B19680A060B0A9219114943F1000362
:102F3000C1E90023012503F051FAA30003F1804306
:102F400003F58833D3F84025B2420BD11DB94FF4B5
:102F50000002C3F84025074B4FF4803000FA04F418
:102F6000C3F8444370BD00BF40030020580A00204E
:102F7000280300200010014010B501238340114AAE
:102F8000BFF35B8FDC4352E8001F01EA040C42E808
:102F900000CEBEF1000FF6D1BFF35B8F4FF480324D
:102FA00002FA00F002F1804202F58052C2F80803F2
:102FB000BFF35F8FBFF36F8F0B4214BF0120002060
:102FC00010BD00BF540A00200123124ABFF35B8FDB
:102FD000834052E8001F194342E8001CBCF1000F77
:102FE000F7D1BFF35B8F0C4A4FF480338340C2F8B4
:102FF00004330A4BBFF35B8F1B68BFF35B8F23FA6D
:1030000000F0C30742BF064B4FF40032C3F8002163
:10301000704700BF540A002000100140500A0020F1
:1030200000E100E00D4B1B68190A1806BFF35F8F23
:103030000B4BD3F80435C01841F10001B3F5801FE4
:103040000AD2084BD3E90023994208BF904203D229
:1030500010F1807041F10001704700BF580A002054
:1030600000100140280300202DE9F04F85B01646DE
:103070001F460546FFF780FF0190FFF7D3FFB942D7
:1030800008BFB0427FD2B6EB000867EB010900230E
:103090004FF080724B4508BF4245C0F08580444BDD
:1030A00003EB0513D3E902239F4208BF964254D095
:1030B0004FEA85094FF4803B09F1804905F150083A
:1030C0000BFA05F209F588394FEA88081FFA88F8E3
:1030D0000292384AD9F8400526F07F4308F180482B
:1030E00008F588381C469346D2F804A5A0EB0A00E0
:1030F00020F07F402AF07F410128C9F8401505D112
:103100000393132003F0FDFF2A4A039B02990AF15F
:10311000020CA4EB0C0020F07F40B0F5000F88BF3C
:1031200064460020C8F80000D8F80000CBF844132B
:1031300024F07F40C9F84005DBF80405824506D03D
:10314000201A023820F07F40B0F5000F19D8E41A99
:1031500024F07F44321947F10003154C290104EB98
:103160000510C0E902230E9A0F9B625043600024B1
:10317000019B13B12846FFF727FF204605B0BDE8A5
:10318000F08F2046B0E701230B4ABFF35B8FAB40C3
:1031900052E8001F194342E800100028F8D1BFF39D
:1031A0005B8F32463B46D8E76FF01504E0E700BF7F
:1031B0003003002000100140500A002073B5194B65
:1031C000194D00244FF0FF304FF0FF31C5F808458E
:1031D000C3E902014FF48033C5F80433134B0226D0
:1031E0004FF400320121C5F804631120C3F8802197
:1031F0002246FEF7D5FB1120FEF7B4FB0C4A012353
:1032000013600C4A2B6013600B4B0C4A0093019423
:1032100000232046FFF728FF3046FFF773F92046CA
:1032200002B070BD300300200010014000E100E05A
:1032300008100140540A0020012F0000FFFF7F000A
:103240002DE9F743344CD4F804339A0709D5334BAE
:103250001A6832B100221A60314A1B6813680133C0
:1032600013604FF02003EFF3118283F31288BFF352
:103270006F8FD4F80433DB0312D5BFF35B8F294B78
:1032800053E8001F21F0010043E80006002EF7D1AB
:10329000BFF35B8F244B002936D11968002933D145
:1032A000002382F31188BFF36F8F53B3FFF7BAFE89
:1032B00006464FF02003EFF3118083F31288BFF32B
:1032C0006F8F1A4BD3E90289494508BF46454FF035
:1032D00000021ED34FF0FF364FF0FF37D3E9001541
:1032E000C3E902671A604FF48033C4F8483380F3AF
:1032F0001188BFF36F8F21B1009542464B460020E5
:10330000884703B0BDE8F083002119601B680123E2
:10331000C7E71146EBE700BF001001400411014070
:10332000580A0020500A00204011014030030020BC
:10333000144B13B5B0F1FF3F08BF1846441E002CD4
:103340001EDD9C42A8BF1C46FFF76CFE0E4B0F49CA
:10335000D3E90023801AB0F5000F28BF0024013004
:10336000044408480091844228BF044612194FF0D3
:103370000000019043F10003FFF776FE02B010BD9C
:103380000024E1E7FFFF7F0040030020012F000041
:1033900008B5FFF747FE024B1B68C01A08BD00BF07
:1033A0004003002008B578B101281CD0144A154903
:1033B00015484FF44F7303F015FC11484FF44F714B
:1033C00003F03CFB00200DE031B14FF08043D3F817
:1033D000183403F003030B604FF08043D3F8180454
:1033E000C0F3004008BD31B14FF08043D3F80C3436
:1033F00003F001030B704FF08043D3F80C04EFE7A8
:10340000DB7D0000987800009D77000010B5044631
:1034100048B90A490A480B4ABD2303F0E3FB0948AF
:10342000BD2103F00BFB084B1A7922B90122074892
:103430001C609A8010BD0648FCE700BF4C7E00006F
:103440009D7700000F7E00005C0A00200000AD0B9D
:103450000C00AD0B08B50B4B1B794BB90A490B4857
:103460000B4AD62303F0BEFB0948D62103F0E6FA47
:103470000020FEF787FA18B9BDE80840FEF772BAD7
:1034800008BD00BF5C0A00205A7E00009D77000046
:103490000F7E0000224B1B7913B504465BB921490E
:1034A0002148224A4FF4897303F09CFB1F484FF4D4
:1034B000897103F0C3FA74B1012C27D01B4A1C494F
:1034C00019484FF4A27303F08DFB18484FF4A27112
:1034D00003F0B4FA16E001A92046FFF763FF4FF0AE
:1034E000804388B1019A012A0ED1C3F81825114BE7
:1034F00000221A601B684FF080430222C3F80423A5
:1035000001229A6002B010BD0022EEE70A4B0022B1
:103510001A601B684FF08043C3F804431C60F1E756
:103520005C0A00205A7E00009D7700000F7E00009C
:1035300098780000040100400001004037B52F4D8D
:103540002A7904465AB92E492E482F4A40F24B1385
:1035500003F048FB2C4840F24B1103F06FFA7CB1AA
:10356000012C28D029492748274A40F2671303F045
:1035700039FB254840F2671103F060FA03B030BD13
:103580004FF080430222C3F80823C3F8044103F537
:10359000827301221B681E4B42F210741A600021D4
:1035A0000846FFF7FFFE0028E8D0012003F0C4FC26
:1035B000013CF4D1E2E74FF080430022C3F8084316
:1035C000C3F8002103F580731B68124B1C608DF853
:1035D000074042F210740DF107010120FFF7E2FEEF
:1035E00010B900236B71C9E79DF807000128F8D1D5
:1035F00003F0A2FC013CEED1F3E700BF5C0A00201F
:103600005A7E00009D7700000F7E00009878000031
:103610000C00004004000040164B07B51A686AB160
:1036200000221A601B684FF080430122C3F8082370
:10363000114B587910B95A711B6898470F4B1A688B
:103640006AB10020186001A91B68FFF7ABFE019A60
:103650004FF0804332B90122C3F818259A6003B0B5
:103660005DF804FB0222C3F80823034B01201B680A
:103670009847F4E7000100405C0A00200401004084
:1036800070B501250368B3FA83F2202AC2F11F0442
:1036900014D0BFF35B8F05FA04F223EA020250E86C
:1036A000006F9E4204D140E8002CBCF1000FF6D11F
:1036B000BFF35B8FE6D102480C7070BD0148FCE798
:1036C0000000AD0B0200AD0B0368CB40DB0710B56B
:1036D00015D4012303FA01F10368BFF35B8F41EABC
:1036E000030250E8004F9C4204D140E8002CBCF19A
:1036F000000FF6D1BFF35B8FEED1024810BD024838
:10370000FCE700BF0000AD0B0400AD0B054B08301B
:1037100033F8100000F02200A0F122035842584173
:10372000704700BF5800002070B500F108030C4C32
:1037300034F81330DA0505460E4607D5C3F34323A4
:1037400004EBC30254F8333052689847A3682BB196
:10375000E26831462846BDE87040184770BD00BF9A
:1037600058000020194B083010B533F81020D1054F
:103770001DD5C2F3432122F4F85223F8102003F19F
:103780001004002034F8022B12F4807F03D0C2F31F
:10379000432291420BD001303028F3D1002243F86C
:1037A00031200B48FFF790FF0A4B984200D110BD23
:1037B00009490A480A4A4FF4997303F013FABDE81D
:1037C000104007484FF4997103F038B958000020B1
:1037D000CC0000200000AD0BDC7E00009D770000D7
:1037E000787E000038B50A4C00F1080534F8153031
:1037F0009A0606D55B0B074A03F5A273002142F82F
:103800002310FFF7AFFF002324F8153038BD00BFA9
:10381000580000200060004010B50446006803F026
:103820008DFB58B912491348134A40F2292303F07B
:10383000D9F9114840F2292103F000F9236803F077
:103840001F025B0922600DD0012B0ED00B490948E5
:10385000094A40F22E2303F0C5F9074840F22E2111
:1038600003F0ECF84FF0A04010BD0548FCE700BFA6
:103870009C7D00009D770000697D00009878000025
:1038800000030050F0B5044685B017461D46F1B15F
:10389000FFF73CFF10B14A4805B0F0BD0B46CDE93B
:1038A00000008DF80E008DF80F000DF10F020DF1E4
:1038B0000E01204603F057FB424A04F1080132F89A
:1038C000113023F0020343F0010322F8113097B1C5
:1038D0003C4B3E787A6804F1080033F810108F07EB
:1038E0000CD5002AD7D133F8102022F01C0242EA6E
:1038F000860223F81020CDBB3348CDE721F020010C
:10390000C904C90C23F81010002AECD0032EC2D829
:1039100017782EB92D4A07F5A27142F82160E2E727
:10392000BA0002F1804202F5C04241EA4731D2F8C2
:1039300010C52CF0030CC2F810C5D2F810C52CF439
:103940004F3C2CF4407CC2F810C5D2F810E54FEA89
:10395000042C0CF47C5C4EEA064E4CEA0E0C41F052
:10396000200123F81010C2F810C5BCE7D5E90067A4
:103970002046FFF7F7FE002EBED0124D2B689E4268
:1039800004D16B689F4201D100220AE010480DF17A
:103990000F01FFF775FE0C4B98427FF47DAF9DF849
:1039A0000F2045F8326005EBC20308345F6035F83C
:1039B000143043EA422343F4807325F814309BE724
:1039C0000400AD0B580000200000AD0B006000406B
:1039D000CC000020F0B5044685B0154609B300F1CF
:1039E0000807314E36F81730980701D49A0658D494
:1039F00013F01C0F02D04B78012B52D001238DF80D
:103A00000F300023CDE900134A1C8B1C20460DF11A
:103A10000F0103F0A8FA36F8173043F0030326F835
:103A2000173015B9214805B0F0BD1F4E04F1080745
:103A300036F81700830734D595F800C06146890031
:103A400020F0200001F18041C00401F5C041C00C0C
:103A500026F817000023C1F810356A78002AE1D053
:103A6000D1F81035AD7823F4991323F4F853C1F845
:103A70001035D1F810E5230203F47C53120443EA15
:103A80000E0302F440322D05134305F4801540EA7D
:103A90004C302B4340F0200026F81700C1F81035B9
:103AA000C0E70348BFE700BF580000200000AD0B8F
:103AB0000400AD0B014BC3E9020170475800002020
:103AC00038B504460D4659B90B490C480C4A40F22A
:103AD000352303F087F80A4840F2352102F0AEFFA3
:103AE0000834084B33F814309A0643BF5B0B2B7035
:103AF0000548064838BD00BFF07E00009D770000F5
:103B0000787E0000580000200000AD0B0400AD0BD3
:103B100038B50E4C94F87850B5B96022294604F1B6
:103B2000100003F0C2F80620FDF71CFF084B0948FF
:103B30001D601B68084B4FF00042C3F804230123AB
:103B400084F87830636738BD0448FCE758000020EB
:103B50007C6100400000AD0B006000400500AD0B33
:103B6000034B93F87800003818BF0120704700BF5E
:103B70005800002001460148FFF7A6BDC8000020FC
:103B800001460148FFF77CBDC8000020F7B5314D64
:103B900000F10807044635F8173013F01C0F0E46E5
:103BA0000BD12D492D482E4A40F2DF3303F01AF88D
:103BB0002B4840F2DF3102F041FF35F81700830651
:103BC0001FD510F002031CD1410B084603F0C7F9C2
:103BD00000F1804000F5C040036003688B0003F1F2
:103BE000804303F5C043D3F8102542F00102C3F827
:103BF000102526B11B4A01238B40C2F8043303B0C1
:103C0000F0BD5EB918491548154A40F2EE3302F08E
:103C1000E9FF134840F2EE3102F010FF35F817309B
:103C2000C3F38203042B10D0052B10D001A80194FC
:103C3000FFF7F2FD019BD0F81015D94001F001010A
:103C40000231204603F0DAF9D9E70321F9E702212E
:103C5000F7E700BF58000020FA7E00009D770000C3
:103C6000787E0000006000400F7F00000E4B00F1E6
:103C7000080233F81230990613D59A0711D45B0B5A
:103C800001229A409B00094903F1804303F5C04398
:103C9000C1F80823D3F8102522F00302C3F8102539
:103CA0007047002103F0AAB95800002000600040CE
:103CB0000E4B00F1080213B513F81230DB0704466F
:103CC00011D5FFF7D3FF2046FFF78CFD01A8019423
:103CD000FFF7A2FD019B03F5E073022240F82320C9
:103CE000034802B010BD0348FBE700BF58000020A6
:103CF0000000AD0B0400AD0B2DE9F04F654B66489D
:103D00006649002589B001222C461E6836B1D0F8DC
:103D1000046316421EBF1C601E68154304338B42A9
:103D20004FEA4202F1D15E4F3B687BB34FF0A043B4
:103D30005C4ED3F820250692C3F82025D6F820350E
:103D40000793C6F8203501960DF118094FF00008C9
:103D50004FF0010BD9F80030F3B908F12008B8F1A1
:103D6000400F09F10409F5D13B603B6801994FF020
:103D7000A043D3F820250692C3F82025019BD3F851
:103D800020350793C1F820351343DDD10124002DE0
:103D900068D109B0BDE8F08F93FAA3F3B3FA83F3C7
:103DA00008EB030606F108023F4B059633F8122094
:103DB000C2F38203F40802939A4606AB06F00700AA
:103DC0000BFA00FC185D20EA0C001855910805A8B4
:103DD0000391FFF721FD059C039904F5E0744B075F
:103DE00050F82440C4F3014423D551463046FFF730
:103DF0009BFC05A80596FFF70FFD059A02F5E072FA
:103E0000E4B250F82220C2F30142944207D10021CB
:103E1000304603F0F3F82146304603F0EFF805A8EA
:103E20000596FFF7F9FC059B0BFA03F3C0F8203564
:103E300090E7022C0CBF03210221304603F0DEF88C
:103E4000029B032B04D0022C07D1BAF1010FE6D15B
:103E500051463046FFF768FCE1E7032CDFD1BAF1A9
:103E6000020FF4E795FAA5F3B3FA83F304FA03F229
:103E70009B0003F1804303F5C04325EA0205D3F814
:103E80001005D3F81015C0F30520C1F30141FFF769
:103E90004BFC7CE700610040006000402061004076
:103EA0007C6100400003005058000020014601489A
:103EB000FFF7E6BBD4000020034B1868A0F108030D
:103EC00058425841704700BF30010010064B1B6834
:103ED000082B06D1054B1B68052B02D8044AD05C81
:103EE00070470020704700BF3001001034010010FF
:103EF000207F0000024AD2F80034002BFBD070472C
:103F000000E0014010B5FFF7D7FF40B14FF080430C
:103F10000022C3F80C21C3F81021C3F83825FFF79D
:103F2000CBFF002846D04FF080525B4BD2F80414F0
:103F3000C3F82015D2F80814C3F82415D2F80C14CD
:103F4000C3F82815D2F81014C3F82C15D2F814149D
:103F5000C3F83015D2F81814C3F83415D2F81C146D
:103F6000C3F84015D2F82014C3F84415D2F824142D
:103F7000C3F84815D2F82814C3F84C15D2F82C14FD
:103F8000C3F85015D2F83014C3F85415D2F83414CD
:103F9000C3F86015D2F83814C3F86415D2F83C148D
:103FA000C3F86815D2F84014C3F86C15D2F844244D
:103FB000C3F87025FFF78AFF10B1384B384A1A60F2
:103FC000FFF784FF18B1374BFB22C3F81825FFF722
:103FD0007DFF48B13449354B0A681B6822F00F0257
:103FE00003F00F0313430B60FFF770FF18B1304B62
:103FF0004FF400721A60FFF75FFF48B14FF0804343
:10400000D3F80024D20744BF6FF00102C3F80024A4
:10401000284B1B68082B0ED1274B1B68052B02D899
:10402000264AD35C3BB14FF01023D3F808224FF05F
:104030008043C3F858254FF01023D3F80022002AFC
:1040400003DBD3F80432002B22DA1D490123C1F827
:104050000435FFF74FFF4FF010201224C0F8004244
:10406000FFF748FFC0F80442FFF744FF0023C1F800
:104070000435FFF73FFFBFF34F8F1249124BCA6859
:1040800002F4E0621343CB60BFF34F8F00BFFDE744
:104090000E4B0F4A1A6010BD00C000408C56004005
:1040A0004881030000F00040E40E00405802001078
:1040B0004096024030010010340100101A7F0000C9
:1040C00000E0014000ED00E00400FA05D800002007
:1040D0000090D00310B5144C144A154903232361F2
:1040E0006361144BA261E3614FF480632362002398
:1040F000A3626362E36222660F4A6266E01D1022D9
:10410000A2662367E366636702F09EFDBFF35F8FDD
:104110000A49204602F098FDBFF35F8F2023A37168
:10412000BFF35F8F10BD00BF640A0020267F000030
:104130002F7F00007D0B00206D0B0020337F0000DF
:104140000E4B70B553F82040013053F82060A64262
:1041500000D870BDD4E900352846984765B1EB68B2
:1041600030B10028B8BF4042FF28A8BFFF20187018
:104170005A7842F001025A700834E8E7BC74000033
:1041800070B5054610B90024204670BD0378002B99
:10419000F9D00F4A0F4C1646944208D10D4CB44248
:1041A000F1D0204602F041FF50B91834F7E720461D
:1041B00002F03BFF10B12368AB42E5D01834EBE7C7
:1041C0002168284602F05AFD0028EED1DCE700BF46
:1041D000F071000078710000F8B504460E464FF00B
:1041E0002003EFF3118783F31288BFF36F8F01F081
:1041F00001FC31460546204602F08EFE042C0CD10F
:104200000A490B4A0B488F2302F0ECFC0A4802F0E3
:10421000E9FC07488F2102F011FC87F31188BFF3F6
:104220006F8F2846BDE8F840FDF748BE5C7F000070
:104230003A7F00009D770000797F0000114CA26852
:1042400092F90E20002A08B509DA0F490F48104AE2
:10425000272302F0C7FC0E48272102F0EFFB4FF0A6
:104260002002EFF3118382F31288BFF36F8F02F005
:104270001DF8A061FDF74AFA0028F0D1FDF7FCFA1D
:10428000EDE700BF0C0B0020CF7F00009D77000002
:10429000AE7F000030B5002387B00122CDE90423B2
:1042A0000F22CDE902320D4C0D4A01930D4918231E
:1042B00004EBC01403FB00234FF4B075009305FB1F
:1042C0000011094B4FF4A072204601F015FD637BED
:1042D00023F00403637307B030BD00BF4803002020
:1042E0000C0B0020C02100203D42000008B50A4B05
:1042F000012202201A70FFF723FF02F0A5F9032024
:10430000FFF71EFF01F0AAFDFCF720F9034A137B1B
:1043100023F00103137308BD7D0F0020C8030020A4
:104320000248034A0021121A02F0BFBCA801002073
:104330003C11002080B5DFF8D880A6B088F308884B
:104340002D4D2E4E6B69DFF8CC9043F400730024A2
:104350006B61E02385F82230EC772C766C76AC76B6
:1043600085F820406B6A43F4E0236B6285F82340B4
:10437000FDF74EFDFDF77AFA4FF0FF33AB62EB62CB
:10438000FDF776FEFDF7ACFD40F20113ADF82430E9
:1043900006ABB360CDE91F4402F046FE2046FFF7AE
:1043A000CFFE0120164DFFF7CBFE01F08DF9154B26
:1043B0000593012314490094CDE903434FF480622F
:1043C0004B46CDE901442846F56101F095FC6A7B36
:1043D00022F004026A730746284600F0C1FD204619
:1043E000FFF758FF094BF3604A46394628463475B3
:1043F000C6F80480FDF774FB00ED00E00C0B002014
:10440000C8030020F77F0000A01D00204803002003
:10441000402B0020ED4200002DE9F041164D174CD5
:10442000174EA846AC420CD9164917483C233246D1
:1044300002F0D8FB154802F0D5FB3C21304602F0D3
:10444000FDFA444502D30020BDE8F081D4E90421FF
:1044500041EA020313F003030BD1E068A361834236
:1044600001D12034DEE7A7690F600133A161114457
:10447000F5E76FF01500E7E758010020580100202C
:10448000FC7F0000218000009D7700003E8000003E
:104490002DE9F74304460E469046994600F108057B
:1044A0004FF02003EFF3118783F31288BFF36F8F70
:1044B000284601F063FD68B9244A2549254881232F
:1044C00002F090FB2448294602F08CFB1F48812112
:1044D00002F0B4FA284601F06FFDA369EBB1336036
:1044E0001B68A361E3690133E3610024284601F0FE
:1044F00053FD68B9154A19491648AC2302F072FBFE
:104500001748294602F06EFB1048AC2102F096FADB
:1045100087F31188BFF36F8F13E058EA090203D1C4
:1045200033606FF00B04E1E72246CDE9008939469C
:10453000284600F0C7FE044618B90A4B9B685B6921
:104540003360204603B0BDE8F08300BFB0780000C0
:10455000027900009D77000017790000D6780000EE
:10456000ED7800000C0B00202DE9F04104460E46CA
:1045700000F108054FF02003EFF3118783F3128851
:10458000BFF36F8F284601F0F9FC68B9224A23492E
:104590002348812302F026FB2248294602F022FB11
:1045A0001D48812102F04AFA284601F005FDD4F8A1
:1045B0001880B8F1000F0FD1204601F035F858B13E
:1045C00032684261C0F8788000F0CAFC394628465B
:1045D000BDE8F04100F070BA3368A2691A60336830
:1045E000A361E369013BE361284601F0D5FC68B9AA
:1045F000094A0D490A48AC2302F0F4FA0B4829464F
:1046000002F0F0FA0448AC2102F018FA87F311889E
:10461000BFF36F8FBDE8F081B07800000279000031
:104620009D77000017790000D6780000ED78000033
:104630002DE9F341044616461F46EFF3058363B1A7
:104640007049714A7148652302F0CCFA704802F053
:10465000C9FA6D48652102F0F1F94FF02003EFF33C
:10466000118883F31288BFF36F8F6A4801F086FCCC
:1046700068B9694A69496548812302F0B3FA654916
:10468000674802F0AFFA6448812102F0D7F9614827
:1046900001F092FCE368634AFBB1A068916888422C
:1046A0003DD056EA07033CD15A4801F075FC68B981
:1046B000594A5D495548AC2302F094FA55495B4884
:1046C00002F090FA5448AC2102F0B8F988F311884E
:1046D000BFF36F8F6FF00F001EE0916891F90E101D
:1046E0004C4821610133E3609368A36001F054FCFE
:1046F00068B9494A4C494548AC2302F073FA454928
:104700004A4802F06FFA4448AC2102F097F988F366
:104710001188BFF36F8F002002B0BDE8F0812169DE
:10472000DEE791F90E1090F90E309942A8BF1946B4
:104730006FF07E029142B8BF11468B4244DD00F01B
:10474000F1FD0546CDE9006732482246414600F0BA
:10475000B9FD0028E0D04FF02003EFF3118683F37A
:104760001288BFF36F8F2B4801F008FC68B92A4A02
:104770002A492648812302F035FA2649284802F0C2
:1047800031FA2548812102F059F9224801F014FC40
:10479000236821699C420AD04BB193F90E309942AB
:1047A000A8BF19466FF07E039942B8BF1946A068AA
:1047B00090F90E30994209D16DB11648314600F09A
:1047C0007BF96FF00A00A7E70025BBE700F0AAFD20
:1047D0000028F2D1F0E70F4801F0DEFB68B90E4A7D
:1047E00011490A48AC2302F0FDF90A490F4802F0CA
:1047F000F9F90948AC2102F021F986F31188BFF3D9
:104800006F8FDEE77F8000005D8000009D770000F5
:1048100091800000340B0020B07800000279000085
:10482000177900000C0B0020D6780000ED7800000E
:1048300038B50446EFF3058363B15249524A5348F1
:10484000C72302F0CFF9524802F0CCF94E48C721F5
:1048500002F0F4F8A368002B00F08D804D4DAA689B
:10486000934240F08B80E3684BB94B494748464A36
:10487000DF2302F0B7F94448DF2102F0DFF8EFF35D
:10488000058363B13F49454A4048FD2302F0AAF938
:10489000434802F0A7F94148FD2102F0CFF8AB6888
:1048A000DB7B012B0CD13F493C4A3848FE2302F008
:1048B00099F93B4802F096F93848FE2102F0BEF81B
:1048C000AA68D37B013BD373E368012B05D9013B75
:1048D000E36000F02DFE002038BD4FF02003EFF321
:1048E000118583F31288BFF36F8F2F4801F046FBC9
:1048F00068B92E4A2E492548812302F073F92A49C6
:104900002C4802F06FF92948812102F097F82648D7
:1049100001F052FBA068216990F90E30994201D054
:1049200000F000FD204600F07FFEA06058B190F935
:104930000E2022610022826700F012FB1A482946ED
:1049400000F0BAF8C5E7E060174801F025FB68B948
:10495000164A19490D48AC2302F044F91249174888
:1049600002F040F91148AC2102F068F885F3118893
:10497000BFF36F8FADE76FF01500ADE74FF0FF307D
:10498000AAE700BF7F8000005D8000009D770000E7
:10499000918000000C0B0020B6800000CD8000004C
:1049A000F8800000FB800000340B0020B07800008D
:1049B0000279000017790000D6780000ED78000039
:1049C00010B5084C23685BB1FEF7E2FC0346206893
:1049D000054A0344BDE810401361002101F0AEBC5C
:1049E00010BD00BF440B00200C0B0020F8B504469E
:1049F0000D464FF02003EFF3118683F31288BFF3C7
:104A00006F8F234801F0BAFA68B9224A2249234835
:104A1000812302F0E7F81E49214802F0E3F81D481F
:104A2000812102F00BF81A4801F0C6FA1D4B002252
:104A30004FF4004740F2E73000211A61E7FB040120
:104A400000234FF47A72FBF75BFB002C164B1BDC48
:104A50001860164B1D60FFF7B3FF0D4801F09CFA7C
:104A600068B90C4A12490D48AC2302F0BBF808495A
:104A7000104802F0B7F80748AC2101F0DFFF86F3D9
:104A80001188BFF36F8FF8BD0228B8BF0220DFE79F
:104A90003C0B0020B0780000027900009D770000F8
:104AA000177900000C0B0020440B0020400B002065
:104AB000D6780000ED78000038B504460D46E9B917
:104AC000EFF30583D3B9194BDA699B689A4215D085
:104AD00001F062FA68B9164A16491748C32302F072
:104AE00081F81648214602F07DF81148C32101F0F3
:104AF000A5FFBDE838400020FCF7A2BF204601F02A
:104B00004BFA68B90A4A0B490B48AC2302F06AF821
:104B10000A48214602F066F80548AC2101F08EFFF4
:104B200085F31188BFF36F8F38BD00BF0C0B0020D9
:104B3000B0780000D67800009D770000ED78000086
:104B400038B54FF02003EFF3118583F31288BFF3DC
:104B50006F8F294801F012FA68B9284A2849294874
:104B6000812302F03FF82449274802F03BF823480C
:104B7000812101F063FF204801F01EFAEFF3058365
:104B800063B12249224A1F48FD2302F02BF8214835
:104B900002F028F81E48FD2101F050FF1E4CA268CB
:104BA000D27B012A0CD11D49194A1648FE2302F076
:104BB00019F8184802F016F81548FE2101F03EFFDA
:104BC000A268D37B013BD3730B4801F0E5F968B9C8
:104BD0000A4A13490B48AC2302F004F8064911486D
:104BE00002F000F80548AC2101F028FF85F3118898
:104BF000BFF36F8F38BD00BF3C0B0020B0780000C2
:104C0000027900009D770000177900007F80000086
:104C1000CD800000F88000000C0B0020FB8000001D
:104C2000D6780000ED7800000C4B994210B50C4688
:104C30000BD10B490B480C4A40F2E73301F0D2FF8D
:104C4000094840F2E73101F0F9FED4E9003213607F
:104C50005A600023C4E9003310BD00BF48030020A0
:104C60004E8100009D7700002C810000836810B504
:104C700004465BB90B490C480C4A40F2832301F00F
:104C8000B1FF0A4840F2832101F0D8FEA068214616
:104C9000FFF7CAFF637B23F0020363730023A36063
:104CA00010BD00BF6F8100009D7700002C810000C7
:104CB00038B502461448154D02F001FA044600B911
:104CC000EC68CAB9AB6863B91149124A1248892322
:104CD00001F088FF114801F085FF0E48892101F09D
:104CE000ADFEAB685A7BD20606D1A26922B9DA8939
:104CF0007F2A01D9EB6138BDAB68A34201D0FFF731
:104D00005FFEEC61F7E700BF2C0B00200C0B0020CE
:104D1000868100002C8100009D770000F880000053
:104D200070B590F90D20437B002A044606DA03F0A3
:104D30007F03437301461F48FFF776FF637B63F0F1
:104D40007F0363731C4B9C4209D11C491C481D4ABC
:104D5000BA2301F047FF1B48BA2101F06FFE1A4A3F
:104D60001146556A51F8203F8B4208BF0023002BA3
:104D700038BF0023CBB194F90E6093F90E00864240
:104D80000FD0801B00280CDD5968C4E900310C608D
:104D90005C609068031B5842BDE870405841FFF7C3
:104DA00087BFAB4201D01B68E4E7C4E900152C6063
:104DB0005462EEE72C0B0020480300204E810000D7
:104DC0009D7700002C8100000C0B002070B504467C
:104DD0004FF02003EFF3118583F31288BFF36F8F39
:104DE0002A4801F0CBF868B9294A2A492A48812380
:104DF00001F0F8FE2549294801F0F4FE24488121FC
:104E000001F01CFE214801F0D7F8254B254A98688F
:104E100011688842194618D1FFF7D2FD1B4801F0EE
:104E2000BBF868B91A4A20491B48AC2301F0DAFEE6
:104E300016491E4801F0D6FE1548AC2101F0FEFDD2
:104E400085F31188BFF36F8F70BD00261660184A76
:104E50001268BAB1C2897F2A14D8427BD20611D116
:104E6000144A90F90E60126896420BDB124A904287
:104E700008D01A69A24202DCFFF752FFCCE7121BEE
:104E80001A61CBE700230B61C8E700BF3C0B002091
:104E9000B0780000027900009D77000017790000CB
:104EA0000C0B0020380B0020D6780000ED780000B5
:104EB000440B0020400B00204803002070B590F9FF
:104EC0000D20437B002A04463EDBDA063CD185698F
:104ED000002D39D163F07F0343731C4B984209D1F5
:104EE0001B491C481C4ABA2301F07CFE1A48BA210F
:104EF00001F0A4FD19490B4653F8200F984218BF42
:104F00000546002D1A462B464D6A38BF0023B3B123
:104F100094F90E6093F90E0086420CD0801B002895
:104F200009DD5A68C4E9003214605C60BDE8704075
:104F30000020FFF7BDBEAB4201D01B68E7E7C4E924
:104F400000252C604C62F1E770BD00BF48030020D3
:104F50004E8100009D7700002C8100000C0B00208A
:104F600038B504464FF02003EFF3118583F3128820
:104F7000BFF36F8F174801F001F868B9164A174957
:104F80001748812301F02EFE1249164801F02AFE2F
:104F90001148812101F052FD0E4801F00DF8204624
:104FA000FFF78CFF0B4800F0F7FF68B90A4A0E497B
:104FB0000B48AC2301F016FE06490C4801F012FE26
:104FC0000548AC2101F03AFD85F31188BFF36F8FDE
:104FD00038BD00BF3C0B0020B07800000279000013
:104FE0009D77000017790000D6780000ED7800006A
:104FF00038B504464FF02003EFF3118583F3128890
:10500000BFF36F8F1D4800F0B9FF68B91C4A1D49F6
:105010001D48812301F0E6FD18491C4801F0E2FD1E
:105020001748812101F00AFD144800F0C5FF637B99
:105030005A0716D4114800F0AFFF68B9104A144956
:105040001148AC2301F0CEFD0C49124801F0CAFD15
:105050000B48AC2101F0F2FC85F31188BFF36F8F90
:1050600038BD23F0040320466373FFF727FF29466A
:105070000248BDE83840FFF71FBD00BF3C0B0020D1
:10508000B0780000027900009D77000017790000D9
:10509000D6780000ED78000070B504464FF020038C
:1050A000EFF3118683F31288BFF36F8F204800F06F
:1050B00065FF68B91F4A20492048812301F092FD0D
:1050C0001B491F4801F08EFD1A48812101F0B6FCF2
:1050D000174800F071FF14F80B3C13F0280F10D1A3
:1050E00054F8103CA4F1180513B12846FFF7BEFD93
:1050F00014F80B3C23F0140304F80B3C2846FFF78C
:10510000DDFE0B4800F048FF68B90A4A0D490B481C
:10511000AC2301F067FD06490B4801F063FD05482B
:10512000AC2101F08BFC86F31188BFF36F8F70BD4B
:105130003C0B0020B0780000027900009D77000051
:1051400017790000D6780000ED78000010B590F9CE
:105150000D20437B002A044606DA03F07F034373E5
:1051600001460648FFF760FD054B9868031B58424F
:10517000BDE810405841FFF79BBD00BF2C0B00203D
:105180000C0B002038B504460D46FFF7DFFF637BAC
:1051900043F0020363731DB3174BA5609C4209D112
:1051A00016491748174ABA2301F01CFD1548BA21C1
:1051B00001F044FC2B689D4208BF0023002B38BF40
:1051C00000239BB194F90E1093F90E20914208D060
:1051D000521A002A05DD5A68C4E9003214605C6086
:1051E00038BD6A68934201D01B68EAE76B68C4E97E
:1051F00000531C606C60F3E7480300204E81000000
:105200009D7700002C8100002DE9F04104460D46F9
:1052100016461F464FF02003EFF3118883F31288E0
:10522000BFF36F8F1F4800F0A9FE68B91E4A1F49DF
:105230001F48812301F0D6FC1A491E4801F0D2FC18
:105240001948812101F0FAFB164800F0B5FE20460E
:105250002946FFF797FF134800F09EFE68B9124AEF
:1052600015491348AC2301F0BDFC0E49134801F069
:10527000B9FC0D48AC2101F0E1FB88F31188BFF3C4
:105280006F8F7B1C08BFB6F1FF3F08D032463B460C
:1052900004F118000A49BDE8F04100F0E5BEBDE8A0
:1052A000F08100BF3C0B0020B078000002790000C4
:1052B0009D77000017790000D6780000ED78000097
:1052C0009950000038B5114B04469868104B0D46B4
:1052D00018601146DDE90423FFF796FF204600F031
:1052E0005BFE68B90B4A0C490C48C32301F07AFCF9
:1052F0000B48214601F076FC0648C32101F09EFBD5
:105300002846BDE83840FCF79BBB00BF0C0B0020D3
:10531000380B0020B0780000D67800009D770000A0
:10532000ED780000F8B504460E464FF02003EFF389
:10533000118783F31288BFF36F8F3C4800F01EFE85
:1053400068B93B4A3B493C48812301F04BFC374953
:105350003A4801F047FC3648812101F06FFB3348A1
:1053600000F02AFE637BDA0676B25CD1A569002DD7
:1053700059D103F07F03637331482146FFF754FC92
:10538000637BA67363F07F0363732E4B9C4209D14A
:105390002D4929482D4ABA2301F024FC2B48BA2173
:1053A00001F04CFB2A490B4653F8200F984218BFD6
:1053B0000546002D1A462B464D6A38BF00236BB3B5
:1053C00094F90E6093F90E00864223D0801B0028CA
:1053D00020DD5A68C4E9003214605C600120FFF7E8
:1053E00067FC0124114800F0D7FD68B9104A19493B
:1053F0001148AC2301F0F6FB0C49174801F0F2FB11
:105400000B48AC2101F01AFB87F31188BFF36F8FB3
:105410002046F8BDAB4201D01B68D0E7C4E90025A7
:105420002C604C62DAE7A6730024DBE73C0B00201B
:10543000B0780000027900009D7700001779000025
:105440002C0B0020480300204E8100002C8100001E
:105450000C0B0020D6780000ED78000070B50446F3
:10546000183000F0D5FE4FF02003EFF3118683F3E0
:105470001288BFF36F8F254800F080FD68B9244A79
:1054800024492548812301F0ADFB2049234801F040
:10549000A9FB1F48812101F0D1FA1C4800F08CFDC6
:1054A00094F90D20637B002A06DA03F07F031C4881
:1054B00063732146FFF7B8FB1A4D637BA86843F07E
:1054C00010036373031B58425841FFF7F1FB0F4869
:1054D00000F062FD68B90E4A13490F48AC2301F091
:1054E00081FB0A49114801F07DFB0948AC2101F01C
:1054F000A5FA86F31188BFF36F8FAB68A34203D17F
:10550000BDE8704001F0D1BD70BD00BF3C0B002074
:10551000B0780000027900009D7700001779000044
:105520002C0B00200C0B0020D6780000ED7800003A
:1055300038B54FF02003EFF3118583F31288BFF3E2
:105540006F8F2D4800F01AFD68B92C4A2C492D4860
:10555000812301F047FB28492B4801F043FB2748F2
:10556000812101F06BFA294C234800F025FDA26847
:10557000D27B72B92649274A224840F2853301F08E
:1055800031FB254801F02EFB224840F2853101F025
:1055900055FAEFF3058373B120491E4A194840F2CA
:1055A000863301F01FFB1C4801F01CFB194840F238
:1055B000863101F043FAA268D37B01330020D37314
:1055C000FFF776FB0C4800F0E7FC68B90B4A14497A
:1055D0000C48AC2301F006FB0749124801F002FB1E
:1055E0000648AC2101F02AFA85F31188BFF36F8FCA
:1055F000BDE8384001F059BD3C0B0020B0780000F8
:10560000027900009D770000177900000C0B002044
:10561000AD8100002C810000F88000007F80000038
:10562000D6780000ED78000038B504464FF020032E
:10563000EFF3118583F31288BFF36F8F1B4800F0DF
:105640009DFC68B91A4A1B491B48812301F0CAFA1C
:1056500016491A4801F0C6FA1548812101F0EEF901
:10566000124800F0A9FC204601F029FD044628B1AB
:10567000FFF7FCFA04F1180000F0CAFD0B4800F037
:105680008BFC68B90A4A0E490B48AC2301F0AAFA10
:1056900006490C4801F0A6FA0548AC2101F0CEF904
:1056A00085F31188BFF36F8F204638BD3C0B002077
:1056B000B0780000027900009D77000017790000A3
:1056C000D6780000ED780000044B002103F12002A1
:1056D000C3E908220846FFF789B900BF0C0B002078
:1056E000F8B5EFF3058373B14149424A424840F2AD
:1056F000DC4301F077FA414801F074FA3D4840F28A
:10570000DC4101F09BF94FF02003EFF3118683F3A6
:105710001288BFF36F8F3A4800F030FC68B9394AFD
:1057200039493548812301F05DFA3549374801F0A0
:1057300059FA3448812101F081F9354D304800F0A3
:105740003BFCA9684B7B03F07F034B7305F1200002
:10575000FFF76AFAAC68637B63F07F0363732D4BDA
:105760009C4209D12C492448224ABA2301F03AFA32
:105770002048BA2101F062F92B6A2848696A8342FD
:1057800008BF0023002B38BF00235BB394F90E70D1
:1057900093F90E20974221D0D21B002A1EDD5A68B1
:1057A000C4E9003214605C600120FFF781FA1448FC
:1057B00000F0F2FB68B9134A19490F48C32301F0FE
:1057C00011FA0F49174801F00DFA0E48C32101F0F4
:1057D00035F93046BDE8F840FCF732B98B4201D0CC
:1057E0001B68D2E7C4E900010C606C62DCE700BF13
:1057F0007F8000002C8100009D770000F880000071
:105800003C0B0020B07800000279000017790000FE
:105810000C0B0020480300204E8100002C0B0020C0
:10582000D6780000ED7800002DE9F04104460D46E1
:10583000EFF3058373B14549454A46484FF49F63EA
:1058400001F0D0F9444801F0CDF941484FF49F618F
:1058500001F0F4F854EA050304D1FFF741FF0020FA
:10586000BDE8F0816FF001031E1B4FF0FF3363EBC7
:105870000507012E77F1000364DA01F03CFC0619FC
:105880004FF02003EFF3118883F31288BFF36F8F7B
:10589000324800F073FB68B9314A32492D48812300
:1058A00001F0A0F92D49304801F09CF92C488121E4
:1058B00001F0C4F82D4F294800F07EFB2C4BB8684E
:1058C0001860FFF743FCB8682A4922462B46183077
:1058D00000F0CAFBBA682148537B43F010035373AE
:1058E00000F05AFB68B91E4A23491A48C32301F045
:1058F00079F91A49214801F075F91948C32101F0D5
:105900009DF84046FCF79CF8BB685B7BDB060ED538
:105910001B490F4A0F4840F2195301F063F90E4832
:1059200001F060F90A4840F2195101F087F801F0DE
:10593000E2FB301A66EB0601012871F10003B8BFE3
:1059400000208DE76FF00106361B99E77F8000008D
:105950002C8100009D770000F88000003C0B0020A7
:10596000B078000002790000177900000C0B0020CD
:10597000380B002099500000D6780000ED78000028
:10598000DE81000038B504460D46EFF3058373B1A0
:105990001349144A14484FF4A56301F023F913483E
:1059A00001F020F90F484FF4A56101F047F86B1C96
:1059B00008BFB4F1FF3F06D10D4B9868FFF74EFDCD
:1059C0004FF0FF3038BD20462946FFF72DFF4FF43A
:1059D0007A7380FB0334D80B40EA4440F2E700BFFF
:1059E0007F8000002C8100009D770000F88000007F
:1059F0000C0B0020014B9868704700BF0C0B002077
:105A00002DE9F04104464FF02003EFF3118683F3B4
:105A10001288BFF36F8F484800F0B0FA68B9474A60
:105A200047494848812301F0DDF84349464801F0E1
:105A3000D9F84248812101F001F83F4800F0BCFA52
:105A4000637B1A0717D53C4800F0A6FA68B93B4AB1
:105A50003E493C48AC2301F0C5F837493C4801F0C9
:105A6000C1F83648AC2100F0E9FF86F31188BFF396
:105A70006F8FBDE8F08123F0200242F00801D209C7
:105A800042D16173A36813B12046FFF7EFF804F128
:105A9000180000F0BDFB04F158074FF00008A56D99
:105AA000BD4201D0002D39D10120FFF701F9294B6A
:105AB0009B68A342C7D1EFF30583002BC3D11E48D7
:105AC00000F06AFA68B91D4A20491E48C32301F054
:105AD00089F819491E4801F085F81848C32100F0DB
